:10000800C6800000C68000000A800000E87F00006B
:100018001A800000C6800000C6800000C68000006C
:10002800F07E0000C6800000C6800000C680000088
:10003800C6800000C6800000C6800000C6800000A0
:10004800C6800000C6800000C68000006E7F0000E9
:100058004E7F00002E770000C6800000C68000009A
:10006800C6800000C6800000C6800000C680000070
:10007800A27F0000C6800000C6800000C680000085
:10008800C6800000C6800000C6800000387B0000E3
:10009800B47400007C800000C6800000C6800000A8
:1000A800C0800000BC800000C6800000C680000040
:1000B800C6800000C6800000C6800000C680000020
:1000C800C6800000C6800000C6800000C680000010
:1000D800C6800000C6800000C6800000C680000000
:1000E800C6800000C6800000C6800000C6800000F0
:1000F800C6800000C6800000C6800000C6800000E0
:10010800C6800000C6800000C6800000C6800000CF
:10011800C6800000C6800000C6800000C6800000BF
:10012800C6800000C6800000C6800000C6800000AF
:10013800C6800000C6800000C6800000C68000009F
:04014800C68000006D
:10020800C6800000C68000000A800000E87F000069
:100218001A800000C6800000C6800000C68000006A
:10022800F07E0000C6800000C6800000C680000086
:10023800C6800000C6800000C6800000C68000009E
:10024800C6800000C6800000C68000006E7F0000E7
:100258004E7F00002E770000C6800000C680000098
:10026800C6800000C6800000C6800000C68000006E
:10027800A27F0000C6800000C6800000C680000083
:10028800C6800000C6800000C6800000387B0000E1
:10029800B47400007C800000C6800000C6800000A6
:1002A800C0800000BC800000C6800000C68000003E
:1002B800C6800000C6800000C6800000C68000001E
:1002C800C6800000C6800000C6800000C68000000E
:1002D800C6800000C6800000C6800000C6800000FE
:1002E800C6800000C6800000C6800000C6800000EE
:1002F800C6800000C6800000C6800000C6800000DE
:10030800C6800000C6800000C6800000C6800000CD
:10031800C6800000C6800000C6800000C6800000BD
:10032800C6800000C6800000C6800000C6800000AD
:10033800C6800000C6800000C6800000C68000009D
:04034800C68000006B
:1020000000000000C680040000000000C68004003C
:10201000000000000A80040000000000E87F0400C7
:10202000000000001A80040000000000C6800400C8
:1020300000000000C680040000000000C68004000C
:1020400000000000F07E040000000000C6800400D4
:1020500000000000C680040000000000C6800400EC
:1020600000000000C680040000000000C6800400DC
:1020700000000000C680040000000000C6800400CC
:1020800000000000C680040000000000C6800400BC
:1020900000000000C6800400000000006E7F040005
:1020A000000000004E7F0400000000002E770400B6
:1020B00000000000C680040000000000C68004008C
:1020C00000000000C680040000000000C68004007C
:1020D00000000000C680040000000000C68004006C
:1020E00000000000A27F040000000000C680040081
:1020F00000000000C680040000000000C68004004C
:1021000000000000C680040000000000C68004003B
:1021100000000000C680040000000000387B0400BE
:1021200000000000B4740400000000007C80040083
:1021300000000000C680040000000000C68004000B
:1021400000000000C080040000000000BC8004000B
:1021500000000000C680040000000000C6800400EB
:1021600000000000C680040000000000C6800400DB
:1021700000000000C680040000000000C6800400CB
:1021800000000000C680040000000000C6800400BB
:1021900000000000C680040000000000C6800400AB
:1021A00000000000C680040000000000C68004009B
:1021B00000000000C680040000000000C68004008B
:1021C00000000000C680040000000000C68004007B
:1021D00000000000C680040000000000C68004006B
:1021E00000000000C680040000000000C68004005B
:1021F00000000000C680040000000000C68004004B
:1022000000000000C680040000000000C68004003A
:1022100000000000C680040000000000C68004002A
:1022200000000000C680040000000000C68004001A
:1022300000000000C680040000000000C68004000A
:1022400000000000C680040000000000C6800400FA
:1022500000000000C680040000000000C6800400EA
:1022600000000000C680040000000000C6800400DA
:1022700000000000C680040000000000C6800400CA
:1022800000000000C680040000000000C6800400BA
:1022900000000000C680040000000000C6800400AA
:1022A00000000000C680040000000000C68004009A
:1022B00000000000C680040000000000C68004008A
:1022C00000000000C680040000000000C68004007A
:1022D00000000000C680040000000000C68004006A
:1022E00000000000C680040000000000C68004005A
:1022F00000000000C680040000000000C68004004A
:1023000000000000C680040000000000C680040039
:1023100000000000C680040000000000C680040029
:1023200000000000C680040000000000C680040019
:1023300000000000C680040000000000C680040009
:1023400000000000C680040000000000C6800400F9
:1023500000000000C680040000000000C6800400E9
:1023600000000000C680040000000000C6800400D9
:1023700000000000C680040000000000C6800400C9
:1023800000000000C680040000000000C6800400B9
:1023900000000000C680040000000000C6800400A9
:1023A00000000000C680040000000000C680040099
:1023B00000000000C680040000000000C680040089
:1023C00000000000C680040000000000C680040079
:1023D00000000000C680040000000000C680040069
:1023E00000000000C680040000000000C680040059
:0423F00000000000E9
:082400001412000002000000AC
:10242000021200000A000000AF9521000E7F22007A
:102430000E01880000000000000020000000E00005
:102440000200320000012000200288001400070072
:102450008F0007000000E00003003A0000D32500D1
:1024600001002000020037000000200001002000D1
:10247000810F7000010032001400070000002000EE
:102480000000E00002003200000002000000000036
:10249000A27D0200000000000040DA000000FE0003
:1024A0004440A900E0C420000000E0000300320026
:1024B00000002000A00188004440A80000000600A1
:1024C0008A1F78008B1F78000000060091018800A9
:1024D000800478000000EB001A003700E28444001A
:1024E00032A0B4009905BA00E284440032A0B400DE
:1024F0009906BA00E284440032A0B4000006EB0062
:10250000476FDE00FD07B200636CE10003003A0094
:10251000EBFF07000000EB000A003700606CE100F1
:1025200004003A00005DEB008B05E900FDFF3E0072
:10253000040037006168E100010032000086EB0012
:102540000B00070019C7BA001905BA000E04E00015
:1025500003003A000A00E000E0FF3A000000060035
:10256000FE07B2009E0188008A047800F5FF37005C
:10257000395DBA008B05E9000C003200295DBA0014
:102580008B05E900080032000C00E00003003A006F
:10259000E284440032A0B400F5FF370019DDBA0030
:1025A0008B05E900FAFF3A008904E800E184440061
:1025B00032A0B40000000600D0210400000000009A
:1025C000821C0400000000003A1504000000000016
:1025D000889FBE008A9FBE008C9FBE008105780048
:1025E00002057800E10F50001B003A000A00E000ED
:1025F000190032000000EB0000047800FD05200007
:102600000046EB00EB4478007249E20004003A0017
:10261000FFCF540002003C00451E07000A003700AF
:10262000804B80008D0F500001003600401E0700D7
:10263000804B800001912000897078000000E80044
:10264000804B88008C7078000804E800080078004F
:10265000880F5500EBFF3E000A0078004F06BE00D1
:102660004F05BE004F04BE00000006000A00FA003D
:1026700011002000B1BF9F00C0BF9F006A805700BB
:10268000B70807004FB897000080FA000000060066
:10269000000005006022B800060220000000D00003
:1026A0008180D2000482D2008582D2000000A00086
:1026B0000202520083825A000300310002024200EB
:1026C00083824A000000A1000603E900F3FF3A00FC
:1026D00000000600EFFF07000400BE000000060037
:1026E0000000FA0068815700CFB89700C0C780008B
:1026F000100078005E0407000080FA000000060069
:1027000082020700DA0207000E0307008A030700AF
:10271000B2030700D9040700840437000000FA0060
:1027200068815700CFB89700C0C7800010007800BC
:102730004F0407000080FA00000006007302070043
:10274000CB0207007C030700A4030700FD0207007B
:10275000CA040700750437000000FA0068815700BA
:10276000CFB89700C0C78000100078004004070071
:102770000080FA0000000600F20237000000FA00B4
:1027800068815700CFB89700470407000080FA001F
:10279000000006005D020700B5020700E90207001D
:1027A000650307008D030700B40407005F043700CA
:1027B0000000FA0068815700CFB897003A0407007C
:1027C0000080FA000000060050020700A80207007F
:1027D0005903070081030700DA020700A704070076
:1027E0005204370080007800100020000202200010
:1027F000828F500004003200E9805000E48F5000C6
:10280000010036000000EB0000000600889FBE00BB
:102810008A1F7800000578000A0478009844780040
:102820000805E8000900FB00EEFF07000000E000DB
:10283000F9FF3A00B0C2B30080CF54000500320067
:10284000D0C2B3008000EB0080CF540005003A00F6
:10285000020037008000EB0001003700110020006B
:102860000804E8000000EB00030037006A02B9002A
:10287000020052000003B0003801FB0003FD2F00EE
:1028800082814100E98F5100F8FF36000100E0002D
:1028900001003A000000EA004F0578004F04BE0036
:1028A00000000600889FBE008A9FBE00800478005A
:1028B0000200E0005B00320001407800814C7800AB
:1028C00082814400F1F99F00E20F5100550036006B
:1028D00091449800A1449800E1F99F00D1F99F002C
:1028E000E60F51004F003600B1449800C1F99F0037
:1028F000E80F51004B0036000905EA00630565004A
:102900000A8444000A055100C1FF2F00010565003B
:102910000080FB008000EB0012102000131020004C
:1029200045080700008CBE000A01440060B99F0002
:1029300071B99F00E80F55003A0036002004980056
:1029400031049800400498005104980020B99F0079
:1029500031B99F0040B99F0051B99F00F80F550051
:10296000300036006004980071049800000C980054
:10297000110C9800200C9800310C9800400C980025
:10298000510C980020B19F0031B19F0040B19F00D1
:1029900051B19F0060B19F0071B19F0000B99F00CD
:1029A00011B99F00640164007801410002044400F1
:1029B000020555006011B8000203BE000002BE000F
:1029C0000403BE006022B800000072008180720023
:1029D000020173008381730010003700009CBE0069
:1029E0000294BE00400498005104980062049800CC
:1029F00073049800000C9800110C9800220C9800A9
:102A0000330C9800400C9800510C9800620C980010
:102A1000730C98000A02B1000802B000FF0F5500C5
:102A2000EEFF3E00090078004F05BE004F04BE00D7
:102A300000000600C1C7800091007800120737002F
:102A4000C1C78000910078008106070011002000B6
:102A50000000E00005003500C0C78000900078004D
:102A6000A000200008070700CF00DE000100EA00F8
:102A70000000060000000600E08F210000000600B4
:102A8000FDFF0700E0C78800D0C7880000000600EF
:102A9000810178000002780030417800B14F510088
:102AA00002003A000204E000F9FF3A009480FB00C3
:102AB0001380FB000080500000000600881F780093
:102AC0000004780008007800F0060700080078008D
:102AD0004F047800000006008000780004003700F2
:102AE0003104E00002003A0000005100000006003E
:102AF000010178000108A300F9FF3A008101780084
:102B000031017800F4EF2F00020242000281EA0056
:102B1000020162000408280004016100F7FF32008E
:102B200083007800010178003104E000FDFF3A00E5
:102B30000000510000000600114290000482FB00DA
:102B40009180FB00C808DD000482700080007800DE
:102B5000D181FB001081FB004811DD0003017100F1
:102B6000030037004811DD001180FB0002017000F6
:102B7000010078003104E00004003200840F5100AD
:102B8000F8FF3A000000E900000006000000050020
:102B9000114390008683FB00060020001181FB009A
:102BA0008001EB00C811DD00020020000203730069
:102BB00083837300214190004811DD008001EB0008
:102BC00002037300838373008080E800104190004B
:102BD0008281FB00020020001082FB008002EB00DB
:102BE000C822DD000400200004017100858171000D
:102BF0001182FB004822DD008002EB00040171001D
:102C000085817100080037001182FB008002EB0013
:102C100004027100858271004829DD00C821DE00B0
:102C2000830171004821DD00010078003104E000DB
:102C300005003200860F5100878F5900F2FF3A00DD
:102C40000080E9000000060000000500314190000E
:102C50000281FB008001EB001183FB008003EB008D
:102C6000C833DD0006002000060371008783710071
:102C7000114190008281FB000200200002037300DA
:102C800083837300214190004811DD008001EB0037
:102C90000203730083837300E30040001182FB0092
:102CA0008002EB001081FB008001EB00C811DD0009
:102CB0000200200002017200838172001042900025
:102CC0008482FB00040020000401710085817100F2
:102CD000204290004822DD008002EB000600370011
:102CE000481ADD00C812DE00850272004812DD00BD
:102CF0001181FB008001EB000201720083817200F0
:102D0000010078003104E00005003200860F510018
:102D1000878F5900F2FF3A00630050000000060060
:102D2000000005002802FA00889FBE008A9FBE00AE
:102D30008C9FBE0000047800810578000F00090018
:102D4000001FEB000E02B1000B0178008800780034
:102D50008004EB000D0037000080FB00C401DE00A2
:102D60008381410003024700EF026000160020004B
:102D70008532DD00EE817900038A7200868444008A
:102D80000000400000004700091098003240780021
:102D90000004E00005003A001A0020000A00780054
:102DA0000001EB008081EB00190037003104E000E6
:102DB000E9FF3A00A200370003824500E4427800B0
:102DC0006BC2780084CF520005003A008A0F500091
:102DD0000C0032000000E800820078000B00370091
:102DE00084CF5200020036000385500006003700F1
:102DF0008200E800820178001A0020000A007800B2
:102E00000200370000057800100020000101780062
:102E100082004000898F5000E7FF39001100200038
:102E2000010078000002EB008086EB0016003700FE
:102E30008D82450065437800EB427900854F530051
:102E400005003A00810F50000C0032000000E8003D
:102E5000040178000B003700854F53000200310059
:102E60008D005100060037000401E8008406780058
:102E70001100200001007800020037008000780077
:102E8000100020000202780004014000890F510068
:102E9000E7FF39000D01E8000300E800800F510052
:102EA0000200360001057800010037008306780033
:102EB0000D02E8008A804500040178000B007800CC
:102EC00034179A00C40507003E1292000000E0008B
:102ED000080032000905E9000D0555008D0F550069
:102EE000010031000D0578000A05E8008002EB00C2
:102EF000010037008A825400880178000006EB0048
:102F000008805100890F5000160031000903780035
:102F1000F603B300060178008000EB0003007800A0
:102F200003179A0034179A0015179A0026179A006B
:102F3000790507008E1192003E1292009E129200B7
:102F40002E1392000000E0000500320088005000BF
:102F5000898F50003A003900800178000100370065
:102F6000868141008900440071F897000080FB00D1
:102F70006F01600017002000823BDD004401DE008D
:102F8000020141006E037900068163000D003200EA
:102F90000000400000004700001090000080540036
:102FA0000A0032000500E000150032000C00E000CD
:102FB000130032008A0F5000110031000A805400C3
:102FC0000F00370001047800CCFF37000C007800B8
:102FD000840F560003003100040078000100370020
:102FE0000000E800EB4078000104E0000600320039
:102FF0006841780082CF5000F9FF32000D00500088
:1030000000044400BDFF37000D0078008000E80098
:103010008C8F5000080036006B417800E840780043
:103020000000E900814F5100F8FF32000A0444001B
:1030300005067800B2FF370008007800010037006D
:103040000000EB004F06BE004F05BE004F04BE005F
:103050000080FA0000000600881F78000104780054
:10306000984078000104E000260032008100FB0057
:10307000A60507000000E000220032009840900002
:103080000104E0001F003200904090000104E000C5
:103090001B003200A84090000104E00003003A0049
:1030A00088007800A4FE070016003700A0409000BA
:1030B0000104E00012003200B84090000104E0007A
:1030C00003003A0088007800B1FE07000D003700C9
:1030D000B04090000104E00009003200C8409000B8
:1030E0000104E00003003A0088007800D7FE0700E2
:1030F00004003700880078000AFF0700010037004D
:103100000000EB004F04780000000600EC87470049
:10311000889FBE008A9FBE008C9FBE008E1F7800D5
:103120000006780001047800180790002805900038
:1031300098067800CDB79F00B80590003202BE0017
:103140002203BE000400BE000601BE004F18DE00D0
:103150006011B8008000EB00D0B79F00E1B79F007E
:10316000F2B79F0083BF9F00800478000900E00051
:10317000060032006000B8006011B8000402500080
:103180008582580006035900878359000E00E0002D
:10319000020035000D10A100CDB79F000900E0002E
:1031A00005003A004FB097000028A30002003A0043
:1031B0000038A300020032008A00E9000100370055
:1031C0008A007800F8815700A200200008007800EB
:1031D000860007000900E00003003A00CFB0970026
:1031E0000128A300080032000000E900008145002A
:1031F000B1C2B3000900E00001003200D1C2B30047
:1032000001497800050037000138A30003003200AF
:103210000000E90001C2B300817578004801900008
:103220000201E90000015100808045004FB2970083
:103230008A0178000C0078005B0207009C00900077
:103240000188A3000400320098009000810F500014
:1032500001003D00010078004F0778004F06BE00D6
:103260004F05BE004F04BE00CF00B10000000600B5
:103270000200FA00889FBE008A9FBE008005780089
:1032800001047800020078001801900028059000E1
:1032900098007800B1BF9F00B80490000200E000E1
:1032A000020035000110A100B1BF9F00EA81570064
:1032B000820020008A0078003002BE002003BE0099
:1032C00008007800490007003FB99700F00061004E
:1032D000030032000000E90001C3B30081747800EC
:1032E0003FB99700E8006100030032000000E900E8
:1032F00001C2B30081747800480190000201E90026
:1033000000015100808044003FBA97008A01780094
:103310000B007800240207009B0090000188A300A6
:103320000400320098009000810F500001003D0021
:10333000010078004F05BE004F04BE000080FA0077
:1033400000000600EA874700889FBE008A9FBE00F3
:103350008E1F780000047800030078007287570001
:1033600084E2260055C72600049FBE00C3962200B3
:10337000030F78006C875700004FEB001105900099
:10338000A1049000910578000200E00002003200E4
:103390000207780001003700728757000000E00044
:1033A00002003A000E007800CBFD07000A00E000A2
:1033B000030035008A0F5000010036000A00780033
:1033C0000B02780089017800000178008E007800F7
:1033D00008007800F40107004F0778004F05BE0091
:1033E0004F04BE00AF00B10000000600F4874700A4
:1033F000889FBE008A9FBE008C9FBE008E1F7800F3
:103400000605BE000404BE0081BF9F0082B79F0076
:10341000F3B79F00B0009000E1B79F001301780060
:1034200092B79F0090069000400090000000E900D5
:10343000000678000D00E00001003D001D002000A6
:103440008040EB00EFB19700817178001E002000F2
:103450001F0037000C06E9000FB09700CF80DE0098
:103460006109B900A0B79F00B1B79F00C2B79F0024
:10347000D3B79F000203BE000002BE000800BE00DA
:103480000A01BE0012060700000778000E4078000F
:103490000043B000EFB0970080707E008D06E90019
:1034A0000FB997000201E90082BF9F002FB2970079
:1034B000BFB297004FB39700DFB397000800BE007C
:1034C0000A01BE00FB0507000205BE000004BE00A5
:1034D0000C00E0000D003400E00F5400E08F5C00B1
:1034E000E00F5D00E08F5D00DAFF3A000D00E000C4
:1034F000D8FF3C008FB997000300E00003003400C0
:103500001FB097000018A300D2FF3A000E00E000A1
:1035100002003A00FFB097001140A1000C007800B3
:103520004F0778004F06BE004F05BE004F04BE0097
:103530004F01B100000006000200FA00889FBE00A3
:103540008A9FBE0000057800010478000200780020
:1035500018019000A804900098007800B1BF9F0067
:10356000B80590000200E000020035000110A10043
:10357000B1BF9F00EA815700A200200089007800B7
:103580003002BE002003BE000800780097FF07004D
:10359000480190000201E9000001510080804500CF
:1035A0003FBA9700890178000A0078007E01070081
:1035B0009A0090000188A300040032009800900057
:1035C000810F500001003D00010078004F05BE0052
:1035D0004F04BE000080FA0000000600FA87470092
:1035E000889FBE008A9FBE008C9FBE008E1F780001
:1035F00080047800010478008205780018019000AA
:103600002805900018077800B80090000200E0003C
:10361000020035000E10A10001003700120020004A
:1036200070006700E0B79F00090032003B02BE0057
:103630002B03BE00E00F5200E08F5A00E00F5B004A
:10364000E08F5B00020032008A86E900010037004B
:103650008A067800E8026700F5B79F000100320093
:103660008D06E9003B02BE002B03BE00E4AF9F00C5
:10367000F5AF9F0086B79F0097B79F004806900060
:103680000C06E9000040EB0080707E00EFB297006E
:103690007FB297008903780081047800D8AF9F003B
:1036A000020478008BBF9F008A05780003457800EC
:1036B0002A0037000C06E9006FAB97006F0063002B
:1036C000E90F500002003C000003B0000100370089
:1036D0007005B0000A03FB001604B100F90F530097
:1036E0000C003E00000378000650A0001606B10052
:1036F000F90F530007003E00B4B79F00A5B79F0025
:10370000C7B79F0047040700CFB39700AFB2970039
:103710003FB2970080747E000804E9008D06E9003E
:103720006FA89700FFA897000FB197009FB197006F
:10373000460020008301D1000281D3008180D300A4
:103740000080D3000603E900FAFF3A00E0AF9F00D3
:10375000F1AF9F0082B79F0093B79F00E10F560023
:103760000F0034006FA89700FFA897000FB19700D3
:103770009FB19700E00F5000E08F5800E00F590014
:10378000E08F5900CBFF3A000800E000C9FF3C0081
:103790000D00E000020034000E18A300C5FF3A003F
:1037A00089007800F4B79F00870478005FAC970029
:1037B0008A4178000B0578008FBD97000500E00076
:1037C000100032003B02BE002B03BE00E4AF9F009E
:1037D000F5AF9F0086B79F0097B79F00E00F52009C
:1037E000E08F5A00E00F5B00E08F5B0005003200C5
:1037F0000C06E90083707E000C06E90000C3B300EC
:1038000080707E00FFB297000500E00003003200E8
:103810000C06E90000C2B30080707E0048019000F1
:103820000201E9000C0151008C8040000E0278007A
:103830008A01780009007800DB00070099009000F9
:103840000188A3000400320098009000810F50000E
:1038500001003D00010078004F0778004F06BE00D0
:103860004F05BE004F04BE00AF01B10000000600CE
:103870000200FA00881F780000047800E2BF9F0071
:1038800064815700080078008602070098009000C5
:103890000148A300010032000080EB004F047800D3
:1038A0000080FA0000000600820178000101780023
:1038B000F1FF2700E6033700889FBE000004780070
:1038C0004800900082047800808F54000100360088
:1038D0008004780009017800580090004C0307002C
:1038E000580090000900400050049800C800900063
:1038F00089845000490498000048EB004F04BE0042
:10390000000006001000780031FB370090019000A5
:103910000388A30001003200E7FF37000348A3003B
:1039200001003A00F7FF07000000060084082000AD
:10393000848F50001D0032000D003C001408200050
:10394000848F50002700320002003C000408200051
:103950000400370024082000848F50003400320017
:1039600044082000848F500043003A00360037009E
:10397000040A2000848F50002700320004003C001D
:1039800004092000848F50003B003A0028003700D3
:10399000020C2000828F50002F003200020F200006
:1039A000828F500034003A002B0037009380E900EA
:1039B0000200E00005003200810978001102FB00DE
:1039C000CFA2DE00612BB900280037008109780002
:1039D000114278000482FB008002EB006033B800E3
:1039E0002200370013027800E40052000200E000D9
:1039F00005003200810978001102BE004FABDE00E5
:103A00008603780019003700810978001102BE0092
:103A10006033B800150037009380E9008109780011
:103A200011027800CFA2DE00612BB9000F00370031
:103A300093027800E8805200810978003102BE00CC
:103A40002103BE00090037009380E9000200E00076
:103A500002003200F1FF37009380E900810978000D
:103A6000110278008002EB006033B8000498BE00B9
:103A70000690BE001000050000000500440820006C
:103A8000848F50002500320008003C0014082000FC
:103A9000848F50001400320024082000848F5000CE
:103AA00024003200040820000C0037000409200024
:103AB000848F50001F00320004003C008408200066
:103AC000848F500024003A000E003700040A2000C2
:103AD000848F500011003200040C2000848F5000AD
:103AE0001D003A000D0037009380E900810978003D
:103AF0009100780001087800CF91DE008288BE0036
:103B0000140037009380E900810978009100780063
:103B100001087800824878000E0037009380E900A1
:103B20008109780091007800010878008208780007
:103B3000080037009380E90081097800910078003F
:103B4000010878006112B900612BB9008498BE00A9
:103B50008690BE001000050000000500889FBE0092
:103B6000000478004800900082047800808F5400A0
:103B700001003600800478000901780058009000A8
:103B8000A30207005800900009004000500498006C
:103B9000C800900089845000490498000048EB0058
:103BA0004F04BE0000000600F2874700889FBE0059
:103BB0008A9FBE008C9FBE008E1F78008004780014
:103BC000010578000204780083057800610762002F
:103BD00002003A008B0F54000800390008017800F9
:103BE0008A0078000900780048FF07008B0F540016
:103BF00002003900880578001E003700088655004D
:103C00000C017800F00F5600010036000201200080
:103C1000010220007E80570022FB07008C067800FE
:103C20000500370002012000FE80570009007800DF
:103C300036FF0700F0865600EF8F5600F9FF3E0072
:103C40004461DE0000FF2F000091B9000201460030
:103C5000FE805700090078002CFF07000E00E000EE
:103C600004003A00080178008A0078000900780012
:103C700026FF07000B0078004F0778004F06BE00B4
:103C80004F05BE004F04BE002F01B100000006002A
:103C9000000005000000050000000500000178009C
:103CA0000040EB008080FB008180400023942100D5
:103CB00063C278000404E00003003A00309421005D
:103CC00060C078000000060092017800934F520017
:103CD00004003A003094210060C078000309E80035
:103CE000010037000040E800EA4F5000EDFF3600C9
:103CF00000000600F6874700889FBE008A9FBE002E
:103D00008C9FBE008E1F78000005780001047800AB
:103D100083057800040678000000EB00C0B79F0020
:103D20008080EB00D1B79F00E0B79F00F2B79F0003
:103D30000008200080BF9F009800780001007800F4
:103D40008004EB00010037008904E800304178006E
:103D50000204E0000300320053C2B300834F51005D
:103D6000F9FF3A000900E000040032000901780080
:103D70000A007800E5FE0700188C44001807780058
:103D800050C2B3009E4F10003F013A000E07E800FA
:103D90000E0C780010003700CFB097000100A00093
:103DA0000B003700CFB097000110A00008003700CB
:103DB000CFB097000120A00005003700CFB09700DA
:103DC0000130A00002003700CFB097000140A000F2
:103DD000C1B79F00000CE800180078009040780000
:103DE000B2C2B30082CF5000F1FF320007003C00A6
:103DF00002C2B30082CF5000F0FF320032C2B300E3
:103E000082CF500007003A00EFFF3700D2C2B30064
:103E100082CF5000E0FF320002C3B30082CF5000D7
:103E2000E0FF3200A2C2B30082CF50000D003A0082
:103E3000000CE8001C80E900000E780010007800FB
:103E4000E0B79F000000E0000F003D00CFB09700FA
:103E50000100A200C1B79F000000EA00E0B79F0088
:103E60000900370069FA0700E0B79F00010037003A
:103E7000000CE800180078009000FB000103B1007E
:103E8000E98F5000FAFF36004FB097000008A300FA
:103E9000020032000010A100C0B79F001800780097
:103EA000E1C2B30090CF100016003A008000EB0092
:103EB000D1B79F000000E800000C7800A1C2B30059
:103EC00090CF100006003A00000CE8001C80E900CA
:103ED000000E780010007800D0B79F00090037006E
:103EE0004AFA0700D0B79F0001003700000CE80035
:103EF000180078009000FB000103B100E98F50002A
:103F0000FAFF36000800780064FF0700804678005A
:103F1000180078001000FB003B020700910620000B
:103F2000810F50003800320012003C004106200092
:103F3000810F5000340032000A003C0011062000BE
:103F4000810F50002000320031062000810F500008
:103F5000A000320051022000810F5000BC003A0046
:103F6000B400370071062000810F5000B8003C00FB
:103F70008800370001072000810F50005C003200EC
:103F800007003C00E1062000810F50007A0032005B
:103F9000F1062000810F5000AD003A0039003700D3
:103FA00051072000810F50002700320081072000B8
:103FB000810F50004200320031072000810F500075
:103FC000A3003A008F0037008D80FB000C017800C1
:103FD00000FE2F000F004000420207000000E0003A
:103FE000A800320018007800000CE800904178002A
:103FF00002FE2F000F014100F88057000A007800F0
:1040000024FF07000E0037008D80FB008C01780034
:104010001200200000FE2F000F00400043FE0700AA
:104020000000E00097003200180CE80002FE2F00AC
:104030000F014100F88057000A00780033FC0700A8
:1040400080844400900037008D80FB008C01780054
:104050000001EB0000FE2F000F00400033FE0700C0
:104060000000E00087003200180CE80002FE2F007C
:104070000F014100F88057000A0078002EFD07006C
:10408000EFFF37008D80FB008C0178000001EB0012
:1040900000FE2F000F00400024FE07000000E0009B
:1040A00078003200180CE80002FE2F000F014100DA
:1040B000F88057000A0078006DFC0700E0FF370029
:1040C0008D80FB008C0178000001EB0000FE2F00CA
:1040D0000F00400015FE07000000E00069003200FC
:1040E00018007800000CE800904178001C003700B0
:1040F0008C0178000001EB00010F200000FE2F0072
:104100000F00400009FE07000000E0005D003200E3
:10411000180CE8000FB097009FB097002FB19700E0
:10412000BFB19700E00F5000E08F5800E00F59003A
:10413000E08F590009003A00CFB597006FB497009F
:10414000A093210064FA07000B0278008801780030
:1041500000017800A19321004700370083C7B30016
:1041600002FE2F000F014100F88057000A0078007E
:104170001AFD0700B2FF37000B8144008D80FB0061
:104180008C01780000FE2F000F0040003BFE07006E
:104190003C0037008D80FB000C01780000FE2F00F2
:1041A0000F004000CF0107000000E00035003200A2
:1041B00018007800000CE8009041780002FE2F0003
:1041C0000F014100F88057000A007800B1FE070097
:1041D0009BFF370000C8B30080CF560029003A008B
:1041E000180CE8001C80E900000E780010407800F0
:1041F000E0DF9F0013002000E2FD2F000F014100CF
:104200000800370000C8B30080CF56001D003A00F8
:10421000180CE8001C80E900000E78008001EB001B
:1042200010017800F88057000A00780045FC07006C
:1042300083FF370000C8B30080CF560011003A005A
:10424000180CE8004FB29700EFB197000800370054
:104250000E0C78000000EB00C0B79F00E0B79F0095
:104260000080EB00D0B79F000002EB0084017800D3
:1042700012002000019421000A0078004AFE070085
:104280006FFF3700180CE800090078004F0778002E
:104290004F06BE004F05BE004F04BE006F01B100C7
:1042A000000006008200FA00889FBE008A1F780086
:1042B0000005780082047800C13F9F000004EB00F5
:1042C000100037000902780088017800A2F72F005B
:1042D0000F01410081F72F008F8040000A00780015
:1042E00084FE070008004000880F500004003D00D5
:1042F000B0042000C0CA88000084EB00040037002E
:10430000000478004F3897001004E000EDFF3A00F9
:10431000080078004F0578004F04BE000080FA00C6
:1043200000000600889FBE000004BE000000EB00F5
:104330000800E00018003200180090000058A300A8
:104340000D003200D800900068009000808F50006F
:1043500009003600B80990000001EB0082007800E7
:104360000800780003000100D80090000080EB00F6
:104370000100E000080032000000EB00200C980073
:1043800060049800500498000900E0000200320028
:1043900018007800B5F807004F04BE0000000600C2
:1043A000889FBE000004BE000000EB000800E00093
:1043B00025003200180090000058A30011003200C0
:1043C000D800900068009000808F500009003600EF
:1043D000B80990000001EB00820078000800780026
:1043E00003000100D80090000080EB000100E00015
:1043F000150032000000EB00200C980060049800CB
:1044000050049800780A900008109000800F520025
:10441000060031000002520011002000CFA2DE0091
:10442000612BB90018007800350007000000EB0090
:1044300000149800700C98000900E000020032009F
:104440001800780089F807004F04BE00000006003D
:10445000889FBE008A1F78008004780001057800DC
:10446000090078009CF90700000478008A017800B0
:104470000801780011002000090078000A000700F8
:10448000800078000080EB00888F500001003A0027
:104490000000EB004F0578004F04BE00000006004E
:1044A000100078004AF83700889FBE008A9FBE003F
:1044B000810478000204780009C5B9000900E00011
:1044C00001003A000004EB000A0178008000780047
:1044D000030078000BFD0700800078008A8F5000F1
:1044E00003003200110009008980D8000004780020
:1044F000080078004F05BE004F04BE000000060013
:10450000A0FD2F00F1FF2F00B50007004F89DE004E
:1045100082017800000006008180FB000100370066
:104520000201E900800178000008A30006003200C3
:104530000200E000230032003082FB00810F5200B5
:10454000F7FF3A00030037000000EB000200E00034
:104550001E0032001380FB00810F50001C0032004F
:1045600014102000048AB90084027800010037008A
:104570000281E90003007800E10F51000A003600D3
:1045800033826A00F6EF2F00040343000482EA003E
:10459000040263000608280006026200F4FF3200ED
:1045A000010037000201E900800178000200E0000C
:1045B000050032003082FB00810F5200F9FF3A0003
:1045C00003003700000005000000EB0000000600BB
:1045D0000300780000000600010037000201E90036
:1045E0000200E0000500320030427800B14178005E
:1045F000834F5200F9FF3200010037000000050030
:104600000480FB008381FB000300500000000600D3
:104610008001780002003700B15978000201E900FA
:104620000200E000FCFF3A00000006000200FA0071
:1046300081017800E0FF9F00930090000188A300B3
:1046400005003200D3009000805878000080FB0005
:10465000D10198000A003700120020008F80E90085
:1046600003007800A7FC0700800078000080EB00C2
:104670000100E00002003200EFF897000180FB002B
:104680000080FA0000000600E8FF37000101780012
:1046900080017800008268000408A3000500320051
:1046A0001300370032407800805978000004E000A1
:1046B00014003200030278000208A300F9FF3A0058
:1046C00003007800010037000318780082007800AA
:1046D000B2017800F5EF2F00838242000382EA00E6
:1046E000048262000508280005026200F6FF32001D
:1046F0000002780031417800025878000204E0009E
:10470000FBFF3A000400780000000600881F7800D4
:10471000010478008800780005000700904F14001D
:10472000010032000000EB004F047800000006009A
:10473000881F7800000478008180FB000A003A009E
:1047400008007800E4F80700000044002200370069
:104750001804E000200032000804E8001081FB008B
:10476000810F51001C003200080078000808A300E7
:10477000F7FF3A0014102000048AB90008017800FD
:1047800038007800F5EF2F00808242008081EA0037
:1047900083826200030828008382620007003A00D7
:1047A00000006A00F5EF2F00808242000080EA00DE
:1047B0000080620083016000F0FF32000200780098
:1047C0001204E000040032000201E8009081FB00C6
:1047D000818F5100F9FF3A004F0478000000060075
:1047E00002002F00F3FF2F00820F5000838F58002C
:1047F000040036000000EA00C0CA88000080EB0018
:104800008080EB0000000600F1FB2F00808040005C
:10481000F98F500001003E000050A000000006008B
:10482000F9FF3700F1F92F0080804000F98F500028
:1048300001003E00F005B20000000600F9FF37005D
:10484000000006008EF80700FDFF0700FCFF3700A0
:10485000F28747008E1F780002027800030178007B
:104860000000E0000200320000077800010037007D
:10487000728757008002EB000100E0000100320067
:104880008102E90070805700060009000018EB0063
:104890000080EB0080BF9F002310200093BF9F008B
:1048A000AEBF9F00B1BF9F00C5BF9F000100E000E9
:1048B00003003D00B1042000C1CA88000600370093
:1048C000004FEB00EEBF9F00DEBF9F00840078002A
:1048D00070805700E6FB07004F0778002F01B100FA
:1048E00000000600881F78000004780000082000FF
:1048F000808F50001700350010082000808F500076
:104900000B00340030082000808F500011003A0066
:104910009200780068805000000978003002BE00E4
:104920002003BE00049CBE000694BE0007003700B2
:104930009202780064805200000978001000BE00E6
:1049400009000700009CBE000294BE001000200079
:10495000010037000000EB004F0478000000060063
:1049600000C0DA0000000600810378001D00070087
:104970000001BE006000B8000478A30013003A00F4
:104980006220E10015003E000D0039008301D100D6
:104990000281D3008180D3008301D1000281D30042
:1049A0008180D3008301D1000281D3008180D300B4
:1049B0000538B000C42ADD00F300B2008381720024
:1049C00007F0A70003F0A0000000060083FF270007
:1049D000020020006110B900F9FF370003FF270033
:1049E000F7FF3700C70ADE00F107B200F50FB2008B
:1049F00008003200E1CF4200020032000170A00046
:104A000024000500810F7000010032000408050039
:104A100044000500810F700002003A0014000500F8
:104A20008502E9000000400081C04800FCFF3B0017
:104A30000170A00024000500020AB900001BB900A3
:104A40000200B8008100420081004300000006001F
:104A5000889FBE008A9FBE0030044200B0844A0096
:104A600030054B0090854B006000B1000898BE00F7
:104A70000A90BE000440E10005C8E10006D0E10054
:104A800007D8E10002003100680040001008E8008B
:104A90004F05BE004F04BE0000000600889FBE0008
:104AA0008A9FBE003004BE002005BE0004185400DA
:104AB00005985C0006185D0007985D001100200055
:104AC0000440E10005C8E10006D0E10007D8E1009C
:104AD000010039008000EB00108810004F05BE0077
:104AE0004F04BE00000006001200FA00889FBE00BE
:104AF0008A9FBE008C9FBE00E0B79F00F1B79F0069
:104B000082BF9F0093BF9F000605BE000404BE0045
:104B10000000EB00D0B79F00C0B79F00B0B79F0068
:104B2000A0B79F0090B79F00000678005FB1970084
:104B3000CFB09700820141003FB097000200E00033
:104B400004003D00370007007E805700C0FF0700CB
:104B500003003700330007007E805700CFFF0700B7
:104B6000DFB697000D00E0000C0035006FB2970033
:104B7000FFB297000FBB97009FBB9700100020006B
:104B8000010020006011B8000002720081827200F2
:104B900002037300838373001B0007000C06E80008
:104BA00001042000810F5600E0FF3A000D00E000F4
:104BB00004003D000802BE000A03BE007E805700CC
:104BC000A3FF07005FA897000000E00005003A007F
:104BD0001FB29700AFB297003FB39700CFB39700D3
:104BE000090007006FB09700FFB097000FB997005A
:104BF0009FB997004F06BE004F05BE004F04BE0090
:104C00000080FA0000000600010007000000060016
:104C1000A4B79F00B5B79F00C6B79F00D7B79F0046
:104C2000000006004F09DE0082817100B3B79F00CB
:104C30004F01DE008180400082807000A1B79F009C
:104C40008FB097004F09DE000000400002007000A6
:104C500090B79F007FA897004F01DE008180400041
:104C60008280700081B79F000D0007004F3ADE0080
:104C70000000400004007000F0AF9F000800070033
:104C80000402420085824A0006034B0087834B00E2
:104C9000DFFF07000802BE000A03BE000000060096
:104CA0002FB29700BFB297004FB39700DFB39700C2
:104CB00000000600881F780018002000881F780078
:104CC00089FF07008F87E9004F0478000000060085
:104CD000801FEB0084FF07008F87E90000000600BB
:104CE000889FBE008A9FBE00E00F5000E08F5800F2
:104CF000E00F5900E08F59000C003D006044B800FF
:104D00006055B8000000540081805C0002015D0025
:104D100083815D00180020001500070008003D0099
:104D2000180007000004EB00050037000004EB004A
:104D30000F00070002003D001200070018002000CD
:104D4000DCFF07000800E000060032006022B80027
:104D50006033B8000000520081805A0002015B00FD
:104D600083815B004F05BE004F04BE0000000600BB
:104D7000E00F5200E08F5A00E00F5B00E08F5B0015
:104D8000000006006044B8006055B80004025400FA
:104D900085825C0006035D0087835D0000000600DD
:104DA000889FBE008A9FBE008C1F7800E00F5000D5
:104DB000E08F5800E00F5900E08F59000D003D00D2
:104DC0006044B8006055B8000000540081805C0069
:104DD00002015D0083815D001C0020000820E100CD
:104DE00009A8E1000AB0E1000BB8E1000D003D00A8
:104DF000080037000006EB00E00F5200E08F5A0079
:104E0000E00F5B00E08F5B0006003D006044B800EF
:104E10006055B8000402540085825C0006035D0002
:104E200087835D00AAFF07000C00E0000600320047
:104E30006022B8006033B8000000520081805A0040
:104E400002015B0083815B004F0678004F05BE00C6
:104E50004F04BE0000000600E2FF0000E80300006F
:104E60001C000000E3FF0000E50300001C00000040
:104E7000E4FF0000E20300001B000000E5FF00006B
:104E8000DF0300001A000000E6FF0000DB03000063
:104E90001A000000E7FF0000D8030000190000001E
:104EA000E8FF0000D503000018000000E9FF000043
:104EB000D103000018000000EAFF0000CE0300004C
:104EC00017000000EBFF0000CB03000017000000FC
:104ED000ECFF0000C703000016000000EDFF00001B
:104EE000C303000015000000EEFF0000BD0300003A
:104EF00015000000EFFF0000B803000014000000E0
:104F0000F0FF0000B303000013000000F1FF0000F9
:104F1000AD03000013000000F2FF0000A803000032
:104F200012000000F3FF0000A303000012000000C5
:104F3000F4FF00009D03000011000000F5FF0000D9
:104F40009803000010000000F6FF0000930300002B
:104F500010000000F7FF00008D0300000F000000AC
:104F6000F8FF0000880300000E000000F9FF0000B9
:104F7000820300000E000000FAFF00007C03000026
:104F80000D000000FBFF0000770300000D00000093
:104F9000FCFF0000710300000C000000FDFF00009A
:104FA0006B0300000B000000FEFF00006503000023
:104FB0000B000000FFFF0000600300000A0000007B
:104FC000000000005A0300000A0000000100000079
:104FD0005403000009000000020000004D0300001F
:104FE0000800000003000000440300000800000067
:104FF000040000003C030000070000000500000062
:105000003303000006000000060000002A03000031
:10501000050000000700000021030000040000005C
:105020000800000018030000030000000900000051
:1050300010030000030000000A0000000703000046
:10504000020000000B000000FE0200000200000051
:105050000C000000F4020000010000000D00000040
:10506000EA020000010000000E000000E002000063
:10507000000000000F000000D6020000FFFF00004B
:1050800010000000CC020000FEFF00001100000034
:10509000C2020000FDFF000012000000B302000089
:1050A000FCFF000013000000AD020000FBFF000049
:1050B00014000000A3020000FAFF00001500000029
:1050C00099020000F9FF0000160000008E020000A7
:1050D000F8FF00001700000084020000F7FF000046
:1050E000180000007A020000F6FF0000190000001E
:1050F0006F020000F5FF00001A00000065020000CA
:10510000F4FF00001B0000005A020000F4FF000042
:105110001C00000050020000F4FF00001D00000011
:1051200041020000F3FF00001E0000003C020000EE
:10513000F3FF00001F00000032020000F3FF000038
:105140002000000028020000F2FF00002100000003
:105150001E020000F2FF0000220000001502000005
:10516000F2FF0000230000000B020000F1FF00002E
:105170002400000001020000F1FF000025000000F3
:10518000F7010000F1FF000026000000ED01000023
:10519000F0FF000027000000E3010000F0FF000026
:1051A00028000000D8010000F0FF000029000000E6
:1051B000CE010000F0FF00002A000000C301000043
:1051C000EFFF00002B000000B8010000EFFF00001F
:1051D0002C000000AE010000EEFF00002D000000DA
:1051E000A3010000EEFF00002E0000009801000067
:1051F000EDFF00002F0000008E010000ECFF00001A
:105200003000000083010000ECFF000031000000CE
:105210007E010000EBFF0000320000007101000081
:10522000EAFF00003300000068010000EAFF000010
:105230003400000060010000E9FF000035000000BC
:1052400057010000E9FF0000360000004E01000099
:10525000E8FF00003700000046010000E7FF000003
:10526000380000003D010000E7FF000039000000A9
:1052700035010000E2FF00003A0000002C010000B0
:10528000E2FF00003B00000024010000E1FF0000FD
:105290003C0000001B010000E0FF00003D0000009A
:1052A00012010000E0FF00003E0000000A010000C3
:1052B000DFFF00003F00000001010000DEFF0000F2
:1052C00040000000F9000000DEFF00004100000087
:1052D000F1000000DDFF000042000000EB000000D4
:1052E000DDFF000043000000E5000000DCFF0000DF
:1052F00044000000DF000000DBFF0000450000006C
:10530000D9000000DBFF000046000000D0000000D4
:10531000DAFF000047000000CD000000D9FF0000C8
:1053200048000000C8000000E3FF00004900000042
:10533000C4000000D8FF00004A000000BF000000C9
:10534000D8FF00004B000000B8000000D7FF0000AD
:105350004C000000B5000000D6FF00004D0000002A
:10536000B0000000D6FF00004E000000AC000000BE
:10537000D5FF00004F000000A7000000D4FF000090
:1053800050000000A2000000D4FF00005100000007
:105390009E000000D3FF0000520000009A000000B1
:1053A000D3FF00005300000096000000D2FF000071
:1053B0005400000092000000D1FF000055000000E2
:1053C0008E000000D1FF0000560000008A0000009F
:1053D000D0FF00005700000086000000D0FF000052
:1053E0005800000083000000CFFF000059000000BB
:1053F0007F000000CEFF00005A0000007A0000008D
:10540000CEFF00005B00000078000000CDFF000030
:105410005C00000075000000CCFF00005D00000093
:1054200073000000CCFF00005E0000007000000070
:10543000CBFF00005F0000006C000000CBFF00000D
:10544000600000006A000000CAFF00006100000068
:1054500067000000C9FF0000620000006500000056
:10546000C9FF00006300000062000000C8FF0000E8
:10547000640000005F000000C8FF0000650000003D
:105480005C000000C8FF000066000000590000003A
:10549000C8FF00006700000057000000C8FF0000C0
:1054A0006800000054000000C8FF00006900000010
:1054B00051000000C8FF00006A0000004F0000001B
:1054C000C8FF00006B0000004D000000C8FF000096
:1054D0006C0000004B000000C8FF00006D000000E1
:1054E00049000000C8FF00006E00000047000000F7
:1054F000C8FF00006F00000045000000C8FF00006A
:105500007000000043000000C8FF000071000000B0
:1055100041000000C8FF0000720000003F000000D2
:10552000C8FF0000730000003D000000C8FF00003D
:10553000740000003B000000C8FF00007500000080
:1055400039000000C8FF00007600000037000000AE
:10555000C8FF00007700000035000000C8FF000011
:105560007800000033000000C8FF00007900000050
:1055700031000000C8FF00005452000049470000FD
:105580005F520000455600005F5000004F5300007E
:105590000054000052490000475F000052450000DF
:1055A000565F00004E4500004700000054520000C6
:1055B000494700005F4C00004F5F0000504F000063
:1055C0005300000054520000494700005F4D0000A6
:1055D000494E00005F4E00004547000000540000A7
:1055E00052490000475F00004D410000585F000035
:1055F000504F000053000000545200004947000083
:105600005F4D0000415800005F4E0000454700001C
:1056100000520000414E0000474500005F5000006E
:105620004F53000000520000414E0000474500006B
:105630005F4E000045470000004100004443000069
:105640005F5300005552000047450000004700002E
:10565000454F00005F46000052450000515F0000CA
:105660004C4F000000470000454F00005F4600001F
:1056700052450000515F0000484900000041000011
:10568000432B00004849000000410000432D00006A
:105690004C4F000000540000454D0000502D00000C
:1056A000484F000054000000544D000052350000E7
:1056B0002D5000004F530000005400004D520000D8
:1056C000352D00004E450000470000004443000017
:1056D0004C000000444300002D52000049500000DF
:1056E00031000000444300002D52000049500000EA
:1056F0003200000045520000524F000052000000EE
:1057000046250000643A0000256400002C250000B6
:10571000643D0000257500002E250000752C00005A
:10572000256400003D250000752E00002575000051
:1057300020000000444300002B20000025750000DD
:105740002C250000752000000046000025640000A4
:105750003A250000642C0000256400002C25000080
:105760006420000000460000415500004C54000039
:105770000025000073200000004E00004F4E000086
:1057800045000000257300002C3000002C43000071
:105790004C450000415200000A0000005348000040
:1057A0004F57000000520000495000000044000024
:1057B00049560000002500007320000025730000FA
:1057C0002025000073200000257500000A0000005D
:1057D0004443000031000000444300003200000058
:1057E00044430000330000005245000053450000D0
:1057F00054000000494E0000430000003630000015
:10580000485A000000350000304800005A000000EF
:10581000474500004F000000257300003A200000BB
:10582000257300003A250000752C00002575000046
:105830002C250000752C000025750000202000009C
:10584000257300003A250000752C00002575000026
:105850002C250000752C000025750000200A000092
:105860000025000073200000257300002073000055
:105870006574000020250000750A00000043000048
:10588000616C0000632000002575000020540000BA
:10589000696D000065720000202500007520000081
:1058A0000A0000004652000045510000004D000073
:1058B000494E0000004D0000415800000044000027
:1058C00045460000415500004C54000000530000C4
:1058D000484F0000570000005345000054000000EE
:1058E00025730000202500007320000025750000AE
:1058F0000A000000474500004F3D000025640000FD
:105900000A000000434100004C4300000043000037
:10591000616C000063200000544900004D45000008
:10592000523A00002575000020660000726F0000EA
:105930006D200000257500002020000028250000B3
:10594000642E000025640000204800005A29000051
:10595000200A000000430000616C0000632000008A
:1059600046520000455100003A2500007520000015
:10597000667200006F6D000020540000494D000069
:10598000455200003A25000075200000200A000062
:105990000000000032640000180000001E0000003B
:1059A00077020000000000003C78000014000000B6
:1059B00019000000FE0100000000000013010000BB
:1059C000BE00000016010000B4000000B00400009A
:1059D0001301000064000000160100005F000000D9
:1059E000B004000013010000640000001601000074
:1059F0005F000000B80B000013010000640000000D
:105A0000160100005F0000002C01000013010000DF
:105A1000BE00000016010000B40000001C070000DA
:105A20003C4400004941000047200000464100007E
:105A3000554C0000543E000020410000432000006F
:105A4000564F00004C540000414700004520000024
:105A50004445000054450000435400004544000004
:105A600000520000554E00002D4600004155000038
:105A70004C54000020250000640000005B2500005D
:105A8000735D0000204400004320000052490000E4
:105A9000505000004C45000020250000642C000000
:105AA00020530000543A0000257500002C2500000A
:105AB00064200000524C00003A250000752C0000C4
:105AC0002575000020520000433A000025640000C4
:105AD000200000005B250000735D00002025000011
:105AE00073200000543100003A25000075200000AA
:105AF000543200003A2500007500000020480000E4
:105B00005A3A0000257500002E250000750000009F
:105B1000202500002E320000753A0000252E0000DE
:105B2000327500003A2500002E320000752000007A
:105B30000A00000046410000554C000054000000DF
:105B4000494E0000564500005254000045520000E6
:105B50002D4F00004646000000530000544F000047
:105B6000500000004449000041470000005300007D
:105B7000544100005254000000440000454C000015
:105B800041590000004300004F4E00004E45000008
:105B90004354000000520000554E0000003F00003A
:105BA0003F3F00003F0000005B250000735D0000E8
:105BB000003A00002575000000470000454F000036
:105BC0003A250000752E000025750000485A000097
:105BD00020000000534600003A2500006425000024
:105BE0006420000000410000433A000025750000D9
:105BF00020000000485200003A25000075200000F7
:105C000000250000757700002000000047450000D7
:105C10004F3A000025640000204C0000257500006C
:105C20002C2500007520000055250000752C000073
:105C3000257500000000000052450000534500009B
:105C400054000000464C00005554000000250000A0
:105C5000733D0000257300000A0000002575000058
:105C60002E250000750000002573000000250000AF
:105C7000733A0000004D0000505000005400000036
:105C8000257300003A250000642000000055000044
:105C900050000000444E0000005400005249000033
:105CA00047000000444500004C410000590000003E
:105CB000257300003A520000257500002C440000B6
:105CC000257500002000000044450000464100000A
:105CD000554C0000540000005345000054000000E3
:105CE00025730000202500007320000025730000AC
:105CF0000A00000044450000425500004700000033
:105D00004445000042550000473D00002564000066
:105D1000200A000000540000494D000045520000D8
:105D2000004400004E200000534300003A250000CC
:105D300064200000256400000A00000025730000B4
:105D400020250000733D000025640000252500008B
:105D50002025000064200000256400000A000000E7
:105D6000257300003D250000640A0000004D00007E
:105D70004F44000045000000534800004F5700000A
:105D80000053000054410000525400000025000060
:105D9000733D0000256400002C250000640A00000B
:105DA0000050000056000000257300002025000070
:105DB00073200000256400000A0000002564000034
:105DC0002E250000642C000025640000002C00003B
:105DD000412500006420000000550000503A0000FA
:105DE00025640000252500002C000000444E000022
:105DF0003A25000064250000252C00000052000018
:105E0000503A0000256400002C25000064200000AA
:105E100000520000543A0000256400002C250000C8
:105E20006420000000530000543A000000540000B9
:105E3000256400000A0000004142000043440000C5
:105E40004546000047480000494A00004B4C00000E
:105E50004D4E00004F5000005152000053540000BE
:105E60005556000057580000595A00006162000062
:105E7000636400006566000067680000696A0000EE
:105E80006B6C00006D6E00006F700000717200009E
:105E9000737400007576000077780000797A00004E
:105EA0003031000032330000343500003637000056
:105EB000383900002D5F000000FF0000FFFF0000E8
:105EC000FFFF0000FFFF0000FFFF0000FFFF0000DA
:105ED000FFFF0000FFFF0000FFFF0000FFFF0000CA
:105EE000FFFF0000FFFF0000FFFF0000FFFF0000BA
:105EF000FFFF0000FFFF0000FFFF0000FFFF0000AA
:105F0000FFFF0000FFFF0000FFFF0000FFFF000099
:105F1000FFFF00003EFF0000FF34000035360000A8
:105F200037380000393A00003B3C00003DFF0000DC
:105F3000FFFF0000FFFF0000FFFF00000001000066
:105F40000203000004050000060700000809000025
:105F50000A0B00000C0D00000E0F000010110000D5
:105F60001213000014150000161700001819000085
:105F7000FFFF0000FFFF00003FFF00001A1B0000B2
:105F80001C1D00001E1F0000202100002223000015
:105F90002425000026270000282900002A2B0000C5
:105FA0002C2D00002E2F0000303100003233000075
:105FB000FFFF0000FFFF0000FF0000004F4E000049
:105FC000003D00004F4E000000310000003D000089
:105FD0003100000025730000257300000A00000056
:105FE0004F460000460000003D4F000046460000BE
:105FF00000300000003D00003000000025300000AF
:1060000034780000004400004953000043000000C1
:106010002C2500007300000041430000002C00000C
:10602000257300002B0000002C250000732D0000BC
:106030000046000052450000510000004953000096
:106040004C4100004E440000004800004F54000046
:10605000004300004F4C0000440000005445000085
:106060004D50000000440000454C00004159000024
:106070000048000056440000430000005048000063
:1060800041530000450000005355000052470000F6
:10609000002C00002573000020000000444900008F
:1060A0004147000000530000544F00005000000022
:1060B0005B250000735D000020000000204600000A
:1060C000523A0000257500002E25000075200000C2
:1060D000544D0000523A0000257500002C250000A8
:1060E00075200000434E0000543A00002575000062
:1060F0000000000041440000445200003A25000026
:1061000058200000535500004D3A0000255800006B
:106110000A00000042490000443A000025640000E3
:106120002C250000642000002043000048450000AA
:10613000434B00002D530000554D00003A20000055
:10614000256C00005820000020540000455300003A
:10615000543A0000256C0000780A0000004200005C
:10616000494400003A250000642C0000256400002A
:106170002020000043480000454300004B2D000054
:10618000535500004D3A0000202500006C580000D7
:106190000A0000005249000050200000444900005D
:1061A000563A0000257500000A0000004143000037
:1061B0005620000044490000563A000025750000B2
:1061C0000A000000525500004E0000005354000029
:1061D0004F500000004300004C4F0000434B0000B4
:1061E00000520000455000004F52000054000000D3
:1061F0005645000052000000524500005345000083
:10620000540000004C4900004D49000054000000BB
:106210002573000020250000750A000000540000CE
:10622000454D000050000000484F000054000000A1
:106230002573000020250000732000002575000054
:106240000A0000004143000000250000733D0000EB
:10625000256400000A000000434F00004E53000078
:106260004F4C00004500000045520000524F000016
:10627000520000002573000020250000730A000072
:1062800000000000524100004D50000000250000B9
:10629000732000004445000046410000554C0000BA
:1062A0005400000041500000505F00004E560000B6
:1062B000535F0000547500006E6500002E630000FF
:1062C00000200000257300002C250000640A000057
:1062D00000250000640000005752000049540000EF
:1062E00045200000524100004D50000020480000B1
:1062F000563A0000257500002C250000752000008E
:10630000505600003A250000750A000000570000B2
:106310005249000054450000204400004F5700003F
:106320004E200000485600003A250000752C000061
:106330002575000020500000563A00002575000029
:106340000A0000004E560000535B0000253000009C
:10635000327800005D20000000250000303200008F
:1063600078200000004E0000565300000046000058
:106370004F5200004D41000054000000484F000003
:1063800055520000530000005245000053450000E4
:106390005400000025730000202500007320000039
:1063A000257300000A0000002B0000002D000000F3
:1063B00055500000444100005445000020480000B2
:1063C000525300003A250000750A000000520000F8
:1063D00045410000440000004445000046410000E3
:1063E000554C00005400000050520000494E00007F
:1063F000540000004C4F0000414400000000000029
:1064000070320000345F0000636F00006E660000B1
:10641000696700005F7300006574000020310000B0
:106420003A25000075200000323A00002575000072
:106430002C200000333A0000257500000A000000FF
:10644000454D00003235000030200000426F000052
:106450006F7400006C6F00006164000065720000E2
:10646000003100002E200000757000006C6F0000ED
:1064700061640000003200002E20000072750000F0
:106480006E000000332E000020650000626C0000EA
:10649000206900006E6600006F000000424C0000A2
:1064A000203E000000000000444900004147000079
:1064B0000055000046420000002500007320000047
:1064C000257300002028000025640000292000001A
:1064D0004F4B00000A0000004C4F0000202D000030
:1064E000204E00004555000054520000414C000071
:1064F00020510000352F00005136000000440000FC
:1065000049410000472000005546000042000000BD
:106510002573000020250000642000002573000082
:106520000A00000048490000202B0000204C000019
:1065300049560000452000002B200000205100009B
:10654000372F0000513800000000000048560000BE
:1065500020250000642E0000252E0000326400007B
:10656000005300004D49000032340000305F00004D
:106570003630000000250000732000002573000065
:10658000002800006329000020440000616E000024
:10659000204100006D620000726F00007365000012
:1065A000206500006E6500006373000079730000D1
:1065B0007061000072740000732E0000636F0000B1
:1065C0006D20000053740000204C00006F75000027
:1065D000697300002C4D00004F200000555300004F
:1065E0004100000041440000445200003A250000F0
:1065F000582C00002564000020420000494400009F
:106600003A250000642C00002564000020520000A0
:106610004E4400003A25000064200000515500005F
:10662000414400003A250000640A000000420000D6
:10663000494400003A250000642C00002564000055
:106640002020000043480000454300004B2D00007F
:10665000535500004D3A0000202500006C58000002
:106660000A000000200000004F4E0000002500003E
:1066700073200000257300000A0000004F46000050
:10668000460000005032000034200000434C00005F
:106690004F4300004B200000256C000075200000D7
:1066A000002500002E320000643A0000252E000074
:1066B000326400003A2500002E320000643A0000E7
:1066C000252E000032640000200A000000000000B7
:1066D0004C4900004D490000543D00002575000064
:1066E0000A00000025640000002500006C64000022
:1066F00000000000420420008000EB0040CF20009A
:1067000068F0070050002000B06788000000060015
:106710000001EB0033062000830F50000800360014
:10672000E9CF5000060036008180FB000088B900E8
:106730004200DE00B24721000200B8000101D10092
:106740000200780000000600F1FF0700BF130700F9
:1067500042152000010F20009D060700906E880062
:10676000906E8000B1130700806E88000000060064
:10677000E7FF0700B513070032122000010F2000C9
:1067800093060700B06E8800B06E8000A713070064
:10679000A06E88000000060050688000E20F5000E4
:1067A00007003200E30F500008003200E10F5000F4
:1067B00009003A00D06E8000740050000C003700D1
:1067C000D06E80008002B10009003700D06E8000DA
:1067D000C003B10006003700F40CAB000300320028
:1067E000D06E80006600500001003700D06E80003F
:1067F00000000600506F8000606F8800E00BE20030
:1068000005003A00300B2000560DE30002003E0068
:10681000EA0DD500606F880000000600889FBE006A
:10682000286B800010408000E50F500003003A0004
:10683000E00BE20001003A00086A8000006E800070
:10684000893E20000900B8006141B80091EF0700BF
:10685000F0678800226E80000940B8008001EB00DC
:106860008CEF070020688800CBFF0700B069880024
:106870004F04BE000000060050002000C11B200095
:10688000226B8000810F51000F00360011032000A1
:1068900072688000810F51000B003600DE0DE200AF
:1068A00009003200206B8000D01BB1007200200074
:1068B000110009000280D80065004000F40F50006C
:1068C000010036004001200000000600226E80001A
:1068D000A10820000191B9004211DE00B04721005B
:1068E0000011B8000301D10082698800026E8000A7
:1068F0000191B900C210DE000008B8000100D1000B
:10690000A069880000000600C06E8000107D88002D
:10691000060DE2000200320040062000107D8800D3
:1069200000000600A20FE20009003A00204D80009E
:10693000EC0DE30006003600F62CEC00AA2FEF0069
:10694000FA2CEC00FC2CEC00F4CCA800EEFF0700C5
:1069500000000600B0678000E50F50001000360010
:10696000A40FE2000E003A00F62CED00B0678000A4
:10697000E40F500002003E0050002000B067880085
:10698000F4CCA800AC2FEF00002DEC00022DEC00A1
:10699000E06E8000207D8800803E2000107D880011
:1069A00000000600106F8000E90F500003003E0059
:1069B000062DEF000A2DEF002F003700000DE2003A
:1069C00016003200FA0CE20014003200062DEC0032
:1069D000082DEF0030688000E20F500003003A00FD
:1069E00010002000506888002300370030688000C5
:1069F000E40F500003003A00200020005068880097
:106A00001D00370030688000E50F50001A00360086
:106A1000300020005068880017003700060DE200A3
:106A200015003200082DEC00082DEC0040688000B5
:106A3000E50F500010003600082DEF00062DED0088
:106A4000060DE2000C003A00062DEF000A2DEF00C3
:106A5000E62DAB0008003200C0E12A00801F78005C
:106A600020E22A00801F780070E22A00801F780050
:106A700039EF0700E68757000000060067FF0700B0
:106A8000106D8000C0678800F0678000360DE3005D
:106A90000800360050102000560DE30005003E00AF
:106AA00050628000F20DE300020034009DFF0700F9
:106AB0000A00370020688000360DE30006003E0023
:106AC00090102000560DE30003003E00506280004D
:106AD000F40DE30001003C009EFF070000000600EB
:106AE000D2CC2C000201B800C318DE006A09B9003C
:106AF000821F5000811F7800E0E22A00801F78008A
:106B0000F7EE0700E687570000000600881F7800B0
:106B100001047800F2FF0700881F780040E32A0094
:106B2000801F7800EEEE0700E48757004F047800DE
:106B300000000600889FBE000104780082447800AF
:106B40000000E00005003200801F780070E32A009A
:106B5000801F7800E2EE0700E48757000800780005
:106B6000DFFF07000980FB00B2EF07004F04BE0003
:106B700000000600889FBE000104780082047800AF
:106B80000000E00005003200801F780070E32A005A
:106B9000801F7800D2EE0700E4875700DE0DE20088
:106BA000030032006A48B900CDFF07000200370039
:106BB00008007800CAFF0700000220009DEF0700D0
:106BC0004F04BE0000000600DE0DF800B0E32A000E
:106BD000801F780000E42A00801F7800C0EE0700C4
:106BE000026F8000516E800070E42A00E1FF070010
:106BF000126F8000716E8000A0E42A00DDFF0700A4
:106C0000D16E800002C2B300D0E42A00C9FF0700A1
:106C1000E16E8000C06E8000811F7800801F7800C8
:106C200020E52A00801F780080E52A00801F780078
:106C3000ABEE0700A00020007EEF0700EE875700B4
:106C400000000600881F78000084FB000808A300ED
:106C500001003200B105070050002000B067880035
:106C6000A22FEF00A42FEF00AA2FEF00AC2FEF0010
:106C7000A62FEF00A82FEF00406E8000516E80001D
:106C8000006E8800116E8800606E8000716E80005A
:106C9000206E8800316E8800420120008000EB00E9
:106CA000C0D12000FFEE0700820020008000EB0032
:106CB00060D02000FBEE0700F48CA800F4ACA90023
:106CC0004038200070698800EBFE0700B06788003C
:106CD000C8FE07000818A30001003200BAFF070031
:106CE0004F0478000000060040E62A00801F78006C
:106CF000C0E62A00801F7800B0E32A00801F7800D9
:106D000000E72A00801F780075EE070010002000C1
:106D1000F06E8800F16E8000B2C1B30050C3B300C2
:106D200094020700E0042000006F8800016F8000DB
:106D3000B2C1B30080C3B3008E020700400120003F
:106D4000C06E8800C16E8000B2C1B30002407800FE
:106D500088020700A0052000106F8800116F8000D6
:106D6000B2C1B300B0C3B3008202070050002000DC
:106D7000E06E8800E16E8000B2C1B30010C2B300C3
:106D80007C0207003012200028120700406E8800A5
:106D9000416E8000B2C1B30080C1B300750207002C
:106DA0009010200021120700606E8800616E800044
:106DB000B2C1B300E0C1B3006E020700903D2000F5
:106DC000D06E8800D16E8000B2C1B300D0C5B300D0
:106DD00068020700E60DA800E62DA800316F8000CC
:106DE000B2C1B30070C5B3006202070030C0B30087
:106DF00094FF0700E88757000000060031062000D6
:106E0000810F500001003E006A00B900000006003A
:106E1000889FBE0000047800080078002EEF07006D
:106E2000E44F50000D003A000880E800E1C2B300D2
:106E300090CF100009003A000048EB0008007800ED
:106E400072EE070080047800630044006FEE0700D4
:106E50006A49B900020040000300370008007800CA
:106E60006AEE0700E5FF07004F04BE0000000600C1
:106E7000881F780021E02000B0E32A0004EF07001B
:106E8000800078000040EB000100E000F1003A00D3
:106E900028E2200088007800A0E72A00FCEE070026
:106EA0000000E0000F003A00A06780006100600071
:106EB0000000A200A16780000100A1008100700015
:106EC000A1678800A0678000E11F600000E82A0039
:106ED000801F780002EE0700E487570010C0B3005F
:106EE000DC00370088007800A0E42A00E8EE070004
:106EF0000000E00034003A0028E420008800780018
:106F000020E52A00E2EE07000000E00009003A0058
:106F1000A200200011002000407A8000AC0407008D
:106F2000E06E8800E16E8000B0C6B3005206070034
:106F30002100370088007800B0E82A00D4EE07006E
:106F40000000E00009003A00407A8000206F8800CD
:106F5000801F7800E40DF80010E92A00801F7800F7
:106F6000DFED0700E68757001300370032062000E8
:106F7000B1042000307A80009504070000047800F6
:106F80008800780030C7B3003B060700460FF800C2
:106F9000881F7800E20DF80020E42000801F7800B0
:106FA00020E22000801F7800E0E92A00801F78009E
:106FB000CBED0700EC87570030C0B30021FF07007E
:106FC00010C0B300A30037008800780020E22A0038
:106FD000AFEE07000000E00014003A00306F8000C0
:106FE000610060000000A200316F80000100A1007C
:106FF00081007000316F8800316F800010C7B300CE
:107000001D060700306F8000E11F600020E22000B5
:10701000801F780000EB2A00801F7800B0ED070089
:10702000E687570010C0B3008A0037008800780058
:1070300070EB2A0096EE07000000E0000A003A001C
:10704000120020008000EB00307A8000600407000E
:1070500080007800C0C6B30007060700DAFE07000C
:1070600010C0B3007B00370088007800C0E62A001B
:1070700087EE07000000E0000A003A0021E420004B
:1070800040E62A0082EE07008000780010C0B300BE
:107090000100E0006F003A0013FF070010C0B300CA
:1070A0006C00370088007800C0EB2A0078EE0700FB
:1070B0008000780010C0B3000100E00065003200DD
:1070C0008800780010EC2A0071EE07000000E00054
:1070D00004003A0030C0B300DAFE070010C0B3006D
:1070E0005C00370088007800D0E42A0068EE0700D2
:1070F0000000E00014003A00323E20004138200039
:10710000307A80003204070000047800881F78007D
:10711000460FF80020E22000801F780070EC2A0063
:10712000801F78006EED07008800780060C7B3000C
:10713000D105070030C0B300C2FE0700E887570042
:1071400010C0B300430037008800780070E42A00C4
:107150004FEE07000000E0003C003A0028E4200069
:107160008800780020E52A0049EE07000000E000D2
:107170000B003A004201200082007800407A800033
:1071800013040700C06E8800C16E800000C7B30002
:10719000B905070030C0B300AAFE0700270037007A
:1071A0008800780010ED2A0039EE07000000E000AA
:1071B0000F003A0020E6200015FF070000047800C9
:1071C00008007800C3060700881F780020E420002C
:1071D000801F780020E22000801F780040ED2A0008
:1071E000801F78003EED0700E88757001300370046
:1071F0003206200061042000307A8000F40307008A
:10720000000478008800780020C7B3009A050700C2
:10721000460FF800881F7800E00DF80020E42000F9
:10722000801F780020E22000801F7800E0E92A001B
:10723000801F78002AED0700EC87570030C0B300AC
:1072400080FE070010C0B300020037005EFE07009A
:1072500010C0B3004F04780000000600811F7800C2
:10726000D2CC2C000201B800C318DE006A09B900B4
:10727000821F5000811F7800E0ED2A00801F7800F7
:1072800017ED0700E887570000000600412D200099
:107290000100B800823E200003002000FDEC070042
:1072A000801F780070EE2A00801F78000CED070028
:1072B000E487570000000600E00DF800D0EE2A0039
:1072C000801F780006ED0700016E8000106E8000C0
:1072D000E2FF0700A0698000ECFF0700E487570089
:1072E00000000600E20DF80060EF2A00801F780021
:1072F000FBEC0700216E8000306E8000D7FF070096
:1073000080698000E1FF0700E48757000000060065
:1073100021688000F0678000811F7800801F78005E
:10732000F0EF2A00801F7800EDEC0700E687570099
:1073300000000600617D8000507D8000811F780084
:10734000801F780090F02A00801F7800E4EC07008E
:10735000E687570000000600E62DAB000F00320064
:1073600030F12A00801F7800DDEC070041698000C1
:1073700030698000B9FF070000022000ADED070072
:10738000CDFF0700D7FF07002C0DF80070F12A0091
:10739000801F7800D2EC0700E68757000000060047
:1073A0004AFD07001DFD070012FD07002C2DEC0013
:1073B000606980002E0DE30006003E00B06780008B
:1073C00070688800102DEC000040EB001DFE0700E7
:1073D0000600370060698000E10F500003003E00A6
:1073E000DE0DE20001003200DBFF07006DFD07004B
:1073F000FA2CEF00002DEF00122DEF000000060028
:107400001C2DEC00200320001C0DE3000E003600B4
:10741000F068800001698000226B8000000041005C
:10742000E0804800F06888000169880010698000E9
:1074300021698000126B800000004100E08048005C
:107440001069880021698800300620001C0DE300C7
:107450002C003600F06880000169800022032000C3
:10746000030020008BEC0700406988001069800051
:1074700021698000220320000300200085EC070022
:1074800050698800406980007010070030698800EA
:10749000016F800040698000ABFC0700116F800025
:1074A000806E8000B2FC0700DE0DE20009003200B1
:1074B000806E8000916E8000006E8800116E8800E2
:1074C000A06E8000B16E8000206E8800316E880052
:1074D00008003700406E8000516E8000006E88000A
:1074E000116E8800606E8000716E8000206E8800D2
:1074F000316E8800F5FC0700F48CA900F4ACA800FC
:1075000095FF07000000060010408000E50F5000C6
:1075100010003A008C09E2000E003200F42CAB009F
:1075200006003200F42CA900F48CAB0002003200FB
:10753000B3FF07000100370050FD0700F46CAB00FB
:1075400004003200F46CA900F4ACAB00010032007E
:1075500093FF070000000600881F780001047800F0
:10756000210020000800E00003003200FF160700A1
:10757000004C78008000EB00010078004F04780098
:1075800000000600889FBE008A1F780080447800B3
:1075900001047800200020000800E000090032000B
:1075A00009407800F1160700004578000940E8001E
:1075B000EE1607004800DD000A85FB000A0C4000BB
:1075C0000000EB004F0578004F04BE0000000600ED
:1075D000161707000000EB00000006002C1707003C
:1075E0000000EB0000000600BAE9B700000006004A
:1075F0000200FA00889FBE008A1F780000447800CD
:107600000105780082447800A14D80001000200020
:10761000E28F50000F00320008C0E800E8805700F9
:10762000CDFF07000FF89700894F5000050032008A
:10763000BC29EC00A14D800010002000808F50007C
:1076400004003A008A00780008407800CDFF070067
:107650000000EB004F0578004F04BE000080FA00E8
:10766000000006000200FA00889FBE008A1F780012
:10767000004478000105780082447800A14D800024
:1076800010002000E28F50000F00320008C0E80018
:10769000E8805700B0FF07000FF89700894F5000AF
:1076A00005003200BC29EC00A14D80001000200034
:1076B000808F500004003A008A007800084078006B
:1076C000A5FF07000000EB004F0578004F04BE0047
:1076D0000080FA00000006000200FA00889FBE0049
:1076E0008A1F780000447800010578008244780001
:1076F000A14D800010002000E28F50000F003200EA
:107700000840E800E880570093FF07000FF8970053
:10771000894F500005003200BC29EC00A14D8000CB
:1077200010002000808F500004003A008A0078008A
:107730000840780088FF07000000EB004F05780044
:107740004F04BE000080FA0000000600889FBE00C3
:107750000044780082447800084078009CFF0700CD
:107760000840E8008940780099FF07004F04BE00F8
:1077700000000600889FBE00004478008244780024
:107780000840780095FF070008C0E80089407800AD
:107790008FFF07004F04BE0000000600889FBE0058
:1077A00000447800824478000840780088FF070091
:1077B00008C0E8008940780085FF07004F04BE003C
:1077C00000000600881F780000047800B2C1B300F2
:1077D0008840780030C0B300F0FF07008840780090
:1077E000E0C92000014878004F047800000006003E
:1077F000B2C1B300E1C9200030C0B30099FF070057
:107800000000E000020032000000EB00EDFF070086
:107810009ECCBF00000006003250E300030032009F
:1078200032F0B700260B0700540A0700B2C1B300BC
:10783000210321009140780060C0B300D7FF07000A
:1078400000000600B2C1B3002103210060C0B300F4
:1078500084FF07000000E0000200320010C0B30007
:10786000EDFF070032D0BF0000000600E17D800080
