:1000000000020400000000000210000006100000C2
:100010000A1000000E100000121000001610000060
:100020001A1000001E100000221000002610000010
:100030002A1000002E1000003210000036100000C0
:100040003A1000003E100000421000004610000070
:100050004A1000004E100000521000005610000020
:100060005A1000005E1000006210000066100000D0
:100070006A1000006E100000721000007610000080
:100080007A1000007E100000821000008610000030
:100090008A1000008E1000009210000096100000E0
:1000A0009A1000009E100000A2100000A610000090
:1000B000AA100000AE100000B2100000B610000040
:1000C000BA100000BE100000C2100000C6100000F0
:1000D000CA100000CE100000D2100000D6100000A0
:1000E000DA100000DE100000E2100000E610000050
:1000F000EA100000EE100000F2100000F610000000
:10010000FA100000FE1000000211000006110000AD
:100110000A1100000E11000012110000160D00005F
:100120001A1100001E11000022110000261100000B
:100130002A1100002E1100003211000036110000BB
:100140003A1100003E11000042110000461100006B
:100150004A2100004E11000052110000561100000B
:100160005A1100005E1100006211000066110000CB
:100170006A1100006E11000072110000761100007B
:100180007A1100007E11000082110000861100002B
:100190008A1100008E1100009211000096110000DB
:1001A0009A1100009E110000A2110000A61100008B
:1001B000AA110000AE110000B2110000B61100003B
:1001C000BA110000BE110000C2110000C6110000EB
:1001D000CA110000CE110000D2110000D61100009B
:1001E000DA110000DE110000E2110000E61100004B
:1001F000EA110000EE110000F2110000F6110000FB
:1002080002100000061000000A1000000E10000086
:1002180012100000161000001A1000001E10000036
:1002280022100000261000002A1000002E100000E6
:1002380032100000361000003A1000003E10000096
:1002480042100000461000004A1000004E10000046
:1002580052100000561000005A1000005E100000F6
:1002680062100000661000006A1000006E100000A6
:1002780072100000761000007A1000007E10000056
:1002880082100000861000008A1000008E10000006
:1002980092100000961000009A1000009E100000B6
:1002A800A2100000A6100000AA100000AE10000066
:1002B800B2100000B6100000BA100000BE10000016
:1002C800C2100000C6100000CA100000CE100000C6
:1002D800D2100000D6100000DA100000DE10000076
:1002E800E2100000E6100000EA100000EE10000026
:1002F800F2100000F6100000FA100000FE100000D6
:1003080002110000061100000A1100000E11000081
:1003180012110000160D00001A1100001E11000035
:1003280022110000261100002A1100002E110000E1
:1003380032110000361100003A1100003E11000091
:1003480042110000461100004A2100004E11000031
:1003580052110000561100005A1100005E110000F1
:1003680062110000661100006A1100006E110000A1
:1003780072110000761100007A1100007E11000051
:1003880082110000861100008A1100008E11000001
:1003980092110000961100009A1100009E110000B1
:1003A800A2110000A6110000AA110000AE11000061
:1003B800B2110000B6110000BA110000BE11000011
:1003C800C2110000C6110000CA110000CE110000C1
:1003D800D2110000D6110000DA110000DE11000071
:1003E800E2110000E6110000EA110000EE11000021
:1003F800F2110000F61100008F0E21000E7F22007E
:100408000E01880000000000000020000000E0004D
:1004180002003200000120002002880014000700BA
:10042800590007000000E00003003A0020FC20000B
:100438000100200002003700000020000100200019
:10044800810F700001003200140007000000200036
:100458000000E0000200320000000200000000007E
:10046800280C0200000000000040DA000000FE0036
:100478004440A900000B20000000E0000300320007
:1004880000002000A00188004440A80000000600E9
:100498008A1F78008B1F78000000060091018800F1
:1004A800800478000000EB001A003700E284440062
:1004B80032A0B4009905BA00E284440032A0B40026
:1004C8009906BA00E284440032A0B4000006EB00AA
:1004D800476FDE00FD07B200636CE10003003A00DD
:1004E800EBFF07000000EB000A003700606CE1003A
:1004F80004003A00005DEB008B05E900FDFF3E00BB
:10050800040037006168E100010032000086EB005A
:100518000B00070019C7BA001905BA000E04E0005D
:1005280003003A000A00E000E0FF3A00000006007D
:10053800FE07B2009E0188008A047800F5FF3700A4
:10054800395DBA008B05E9000C003200295DBA005C
:100558008B05E900080032000C00E00003003A00B7
:10056800E284440032A0B400F5FF370019DDBA0078
:100578008B05E900FAFF3A008904E800E1844400A9
:1005880032A0B40000000600000005006022B80098
:10059800060220000000D0008180D2000482D20030
:1005A8008582D2000000A0000202520083825A0015
:1005B800030031000202420083824A000000A100C9
:1005C8000603E900F3FF3A0000000600889FBE001A
:1005D8000004BE00080078000D0007000000440079
:1005E8008900780003000700080078004F04BE0067
:1005F80000000600881F78000004780008007800D2
:100608001B000700080078004F047800000006006F
:1006180080007800040037003104E00002003A004E
:100628000000510000000600010178000108A30045
:10063800F9FF3A008101780031017800F4EF2F00CA
:10064800020242000281EA00020162000408280056
:1006580004016100F7FF320083007800010178008F
:100668003104E000FDFF3A000000510000000600E0
:100678000101780080017800008268000408A30066
:1006880005003200130037003240780080597800A6
:100698000004E00014003200030278000208A300FE
:1006A800F9FF3A00030078000100370003187800CA
:1006B80082007800B2017800F5EF2F0083824200B3
:1006C8000382EA000482620005082800050262002D
:1006D800F6FF3200000278003141780002587800B5
:1006E8000204E000FBFF3A00040078000000060066
:1006F80052580000205300005A3A000000430000FE
:100708004D4400003A0000002800000029000000C5
:10071800424C00004F4300004B5300003A000000D9
:1007280020420000494400003A00000056450000FD
:100738005249000046590000002000004F4B0000BD
:100748003A00000020450000525200004F520000BD
:100758003A000000767300003A00000044450000AB
:1007680042550000473100003D00000044450000AC
:1007780042550000473200003D000000455200008D
:1007880041530000452000004F4B00000057000077
:1007980072690000746500005F5000004D3A000067
:1007A800005200004553000045540000310000008D
:1007B8005245000053450000543200000045000037
:1007C8005252000020000000424C00004B3A00004A
:1007D800002000004F460000200000005B50000091
:1007E800323400002D4200004F4F0000545D0000DD
:1007F800200000004F460000460000004F4E000059
:100808000030000078000000303100003233000072
:100818003435000036370000383900004142000006
:100828004344000045460000424C00004B3A00009B
:1008380000200000434800004B3A00000000000080
:100848002053000045430000530A00000000000048
:100858005181200091407800CB62AB0005003A003E
:100868000000EB000104E000060032001568EF000C
:1008780000000600100020000104E00001003A001A
:1008880015E8B70000000600D7023700889FBE00B1
:100898008A9FBE008C1F780000047800010678004B
:1008A80060C0B300F8FF070060C0B300F6FF0700A0
:1008B8000045EB008005EB000E0037000060FE00ED
:1008C800B844780009454500E6CF540004003200DA
:1008D800E4CF540002003200E5CF540002003A0091
:1008E80050C0B300E8FF070009407800E6FF0700A2
:1008F8008B05E8008C8F5500F0FF39000A44EA00A8
:10090800E64F540004003200E44F54000200320065
:10091800E54F540002003A0050C0B300DAFF070068
:1009280008407800D8FF070040C0B300D6FF070092
:100938004F0678004F05BE004F04BE0000000600B9
:100948000800FA0080FF9F00D1BF9F0092FF9F0020
:10095800E3BF9F00F4BF9F0081002000688057001C
:10096800CAFF07000080FA00000006001C00FA0019
:10097800881F7800000478007E8057000D00090069
:100988000018EB00B0C0B300A0E79F00A0C1B300FF
:10099800B0E79F0010C0B300C0E79F0080C1B3005C
:1009A800D0E79F0030408000B0B79F004181200011
:1009B80091407800E18060004FB097000000A100EE
:1009C80000807000C0B79F00A1FF0700E100600031
:1009D80001804000CFB097000110A1008100700095
:1009E800C1B79F0000002100D0B79F0000402A0037
:1009F800E0B79F000800E00003003200880078009C
:100A080072805700FBFE0700C10120007E8057005E
:100A18009EFF07004F0478000080FA0000000600DF
:100A28000004E00005003A001448E2000300320028
:100A380087FF07000000E000020032000000EB0022
:100A4800CAFF070000000600889FBE008A1F7800C2
:100A58000004780001057800980490001628AB007F
:100A680016003200C03728005F0107000A0078002E
:100A7800B5010700303828005B0107001880FB002B
:100A8800B10107008038280057010700184090007E
:100A98000080FB00AC010700284090000080FB00AC
:100AA800A9010700384090000080FB00A60107005C
:100AB800A03828004C010700290107000880E80039
:100AC800104178008181200082487800E3004400CA
:100AD80011417800938120008249780048419000B4
:100AE800A3812000824978001B68EF001881FB0071
:100AF8008001EB00EF0F5100E08F59007F003E00AE
:100B0800026001000F0037007C0037007B003700CF
:100B18007A0037007900370078003700770037000F
:100B2800760037001E0037004D00370051003700AF
:100B38005200370071003700080037006F00370097
:100B48005100370082C1B3000248780010C0B300DA
:100B5800804878004100200043003700E18F5400AE
:100B68000B003A00B8019000C34A8800C03828003A
:100B78001D010700C04A80007301070040392800A2
:100B880019010700090078006F010700F400070049
:100B9800E8004400090078004204070057003700C5
:100BA80018009000A8009000006B8800116B880066
:100BB800CA0307000000E00014003A003F030700E2
:100BC800A039280008010700103A2800060107008C
:100BD800E06A8000F16A80008A010700E0000700EF
:100BE8000002EB00840178000041EB0084007800EB
:100BF80080C0B30052FF07002568EC000E68EF00C4
:100C080010C0B300330207003C003700A0392800A9
:100C1800F5000700603A2800F3000700E06A80004A
:100C2800F16A800077010700E03A2800EE0007002B
:100C3800006B8000116B800072010700C80007007C
:100C48000002EB00840178000041EB00840078008A
:100C580070C0B3003AFF07002203070027003700DF
:100C680020030700110020000800780007FF070094
:100C780022003700DC0207002000370010C0B30054
:100C880067FF07001D00370010407800F04F500044
:100C98000A003A00B1408000618060000000A200B4
:100CA8000100A10081007000B1408800203B2800AD
:100CB800CD000700B04080000D003700F14F500014
:100CC8000E003A00B0408000E20060008100E900B8
:100CD800CF08DE00818040000010A1000080700075
:100CE800B0408800A03B2800BF0007001608D500C8
:100CF800610060001C010700990007004F0578009B
:100D08004F04BE0000000600718220009140780068
:100D1800E1CF50000E00320003003900E2CF50004E
:100D28003C003A0014003700E64F500039003A0002
:100D380010C0B30027E8B7002828EF002A68EF00A2
:100D4800C08220002B0109000058EB0000000600BB
:100D5800E64F500005003A0020C0B30027E8B7006E
:100D68002828EF002A68EF00010037002768EF0005
:100D78002628A900000006002628AB0017003A0024
:100D8800E64F500005003A007282200001497800C1
:100D98002828EF002A68EF0000000600E44F500002
:100DA8000A003A00414180008100E9004141880081
:100DB8002A68EE000100E00002003200C082200034
:100DC80021FF07002768EF0000000600E54F5000EC
:100DD80003003A002628A800000006002628A900DB
:100DE80041418000B2122000828F500006003E0070
:100DF800C282200000F178008100E80041418800AB
:100E08002A68B400000006002768EF002A68EF008F
:100E18002828EF00000006000300370099010700AA
:100E2800B9FF0700EB0107008F0107000000E00091
:100E3800FAFF3A0000000600E610EC003087880050
:100E48000A08E200030032000A28EF00E90F500008
:100E580003003400E630EF0010C0B300F0FE0700D6
:100E6800000006006600FA00889FBE008A9FBE0048
:100E780080057800010578000F007800E006B100D1
:100E8800320009000018EB000B007800E0FD0700B5
:100E9800000478000A007800DDFD0700800478006F
:100EA80000C1B300A0579F000800E0000500320011
:100EB8008B00780040F92F000F004000CDFD07009F
:100EC800B8579F000900E0000E0032000800E0005B
:100ED800070032008A00780040F92F000F00400018
:100EE800BAFD070008C44400B8579F000500370042
:100EF8008A00780040F92F000F004000BDFD070070
:100F0800B9579F006106200020F92F000F0040000C
:100F18005EFE07004F05BE004F04BE000080FA00C9
:100F28000000060080007800203F2800CDFF370031
:100F38001608AB0003003200FAFF070010C0B30028
:100F480064010700000006001628AB000300320009
:100F5800F4FF070010C0B3005E01070000000600A0
:100F6800644DE2000300320050D62000EDFF070078
:100F7800646DEF0000000600FF4F50000B003600C4
:100F880042D62000124178008281FB0051D6200011
:100F980080F079000240E80064EDB7000080FB00B3
:100FA8000041EB008270780000000600ECFF37007B
:100FB800889FBE008A1F78000105780080047800A9
:100FC8000004EB000300370039407800EAFF07000F
:100FD8000804E8008A0F5400FBFF35004F0578002D
:100FE8004F04BE0000000600889FBE008A1F7800DC
:100FF800800478000900780085FD07000005780066
:101008000A00E000060034000004EB0039407800D4
:10101800D9FF07000804E800880F5500FBFF3C00D3
:101028004F0578004F04BE00000006002000FA00BB
:10103800881F780000027800840078000004EB0024
:10104800050037000804E800A2002000110009008C
:101058008280D8008000FD000100E000F9FF3A001E
:101068000E01E9008002EB0008003700A300200011
:10107800110009000382D80081017800000278007D
:1010880000C3B30000E941008502E800888F5200E0
:10109800F6FF3500020037006E407C00B6FF0700FF
:1010A8000804E900FCFF3B004F0478000080FA00C8
:1010B80000000600881F7800004478008041EB009B
:1010C80031C6B300814F5400070036000880FB008A
:1010D80042062000110009000280D8000043B00039
:1010E800A5FF070013C0B3000884FB0042062000D8
:1010F800110009000284D80001447800E94F540027
:1011080002003E00E1CF510006003A000880FB00D3
:10111800A2002000110009000280D8000043B0009E
:1011280095FF07000884FB00A200200011000900B9
:101138000284D80002C3B30002C040008EFF07003B
:101148004F04780000000600F10F2000810F5000C6
:1011580002003E00D7FF070001003700B3FF070079
:1011680000C2B30084FF37000000E00002003A002C
:10117800E03F280001003700204028009AFF370090
:10118800889FBE008A1F7800014478000085FB0014
:101198004450DE00894028006940780076FF070047
:1011A8006F05650069407D0073FF07000804E000D3
:1011B80002003200084078006FFF07004F057800F2
:1011C8004F04BE0000000600889FBE00000478009F
:1011D8004C40DE00894028006940780066FF07001F
:1011E8004840DE006F0060006940780062FF070039
:1011F80001C2B30008407800E1FF07004F04BE00B9
:1012080000000600889FBE008A1F78000004BE0008
:101218005040280074FF07004C48DE000100200001
:101228000000E0000300320081402800614078009F
:1012380051FF07004848DE00010020006F006000F1
:101248008A4028006A4078004BFF07004448DE00C7
:10125800010020006F0060006A40780046FF070028
:101268006F8064006A40780043FF07000800780038
:10127800D5FF07004F0578004F04BE0000000600A8
:10128800889FBE000004BE000001BE0000B021001F
:10129800710B2000BDFC0700C400DE008100E900DE
:1012A8002062A900F0092000808F500006003E004F
:1012B8000801BE00006C2C00D1022000B3FC07001E
:1012C8008000E9002062A800411188004F04BE0098
:1012D80000000600630060000000400091FF2F003E
:1012E8000211800082806000810070000111880076
:1012F800000006000040E900610060000111800064
:101308000100A100810070000111880000000600A2
:10131800F0CF2F002022B60021E2A8002342A80027
:1013280000000600D6FF07000040EB00E9FF0700B9
:1013380010C0B300EFFF07008560A900F0FF280088
:10134800420580008200600001C0A00041058800BD
:10135800A800B60000C0A00040058800ECFF3700D8
:101368002262AF00301180002242AF0030118000AD
:101378002222AB00010032002222A9000000060050
:10138800217780000000EB0032778000810F510048
:101398000C00320010778000E00EE3000A003E00E7
:1013A800117780000000EB0002778000810F510068
:1013B800040031001077800001778000F00FB00042
:1013C80001005000000006000177800010778000BF
:1013D8000080500000000600E9FF0700F10F200020
:1013E8000080500000000600017780008100E800BE
:1013F800F20F2000828F50000500320082EE20009C
:1014080000F17800017788002342A8000000060058
:101418008000EB0082EE200000F178000177880060
:101428002342A80000000600F9FF3700889FBE008D
:101438008A1F7800010578000A00E00007003400E0
:10144800800478000004EB0039407800E6FF0700CC
:101458000804E800880F5500FBFF3C004F057800A2
:101468004F04BE000000060020778000E68EB6001C
:1014780000F0A7000000EA000000EA004F00DE00CC
:1014880000000600217780000080EB0032778000A2
:10149800810F510008003200E62EEC00F00F20000A
:1014A800E60EE300050032003077800071FE200070
:1014B800614078000080FB0000000600E62EEF0087
:1014C8003077800071FE2000614078000080FB00CA
:1014D800F9FF37000177800012778000810F5100F3
:1014E800140032002342A8000004E0001200320079
:1014F8002322AB00FEFF3A00E22EEC00F10F2000A1
:1015080012778000810F51000E0032008580A900FB
:101518001177800082EE2000E2C078008180FB0015
:10152800211188000177800012778000810F510017
:10153800ECFF3A00000006002322AB00EEFF320069
:1015480000000600E22EEF008580A90011778000D8
:1015580082EE2000E2C078008180FB002111880023
:101568000177800012778000810F5100DDFF3A007B
:10157800F0FF3700101180006E006000020032009A
:10158800301180002222A9002202AB000A0032009A
:1015980072FE200031118000E42EEC00F00F2000D4
:1015A800E40EE30005003200207780000171780026
:1015B8002202AB00F7FF3A0000000600E42EEF001D
:1015C80020778000017178002202AB00F1FF3A0019
:1015D800F9FF3700E7FF07000040EB00BDFF3700C9
:1015E800C742A900C142A9000000060068C0A900BE
:1015F800CE42A900C842A9002C83A800000006001A
:1016080068E0A900CE62A900C862A9002CA3A800BE
:10161800000006006820A900CE82A900C882A9009F
:10162800000006006B60A900CEA2A900C8A2A9000C
:10163800000006006A80A900D702A900D102A9000B
:10164800000006006AE0A900C8E2A8000000060041
:1016580069E0A900C962A800000006006A20A90084
:10166800D0E2A80000000600CCA2A9008621EF0065
:10167800C542A900CC82A90095A0A9009400A900A0
:1016880000000600889FBE008A1F7800F00B20002B
:101698004207B60068042000790520002174200064
:1016A800884878008948780080487800CCFF07008F
:1016B800D8FF0700DBFF0700CCFF07000AFE2F005A
:1016C80011368000010065003001B3001036880033
:1016D800CBFF0700F10F2E001036800080806000DD
:1016E800004021000100700010368800D5FF070077
:1016F800DAFF0700CFFF07002135800001006500F1
:101708007001B30020358800C136800001006500F3
:101718003000B300C036880000202C0011002000E3
:1017280000FF0700CAFF0700E0010700103A800029
:101738000060A0002174200088487800894878005B
:10174800804878004F0578004F04BE00000006006E
:101758002CA3EF0040A7A900CAFF0700C2FF07009B
:10176800A80107001468EF005A6DEF000301070095
:1017780000202100C04088001A28EF00C1408000E6
:10178800D0408000E4010700804088009140880034
:10179800F2FF2F00F30F2000820F5000838F5800B4
:1017A80005003A001468EF000020200080408800FF
:1017B8001228EF000200370010C0B30014E8B70089
:1017C8002028EF000228EF000628EF000428EF0089
:1017D80040A7A900A4FF0700A0010700AD0107006A
:1017E8000040EB008EFC37001061A90011E1A90050
:1017F80021E2A90031E2A90000212100CC01370033
:101808000E48E20009003A0011FC07001548E20002
:1018180006003A0030408000E50F50000300360013
:101828001448E20001003200EFFF07000000060044
:1018380068FF07008500AB00020032008500A900A0
:101848006401070000000600C1FF0700ECFF070065
:10185800F7FF070070FD0700FDFF3700889FBE00F7
:101868008A1F78000004BE000020200041002000EC
:10187800800178000101780088007800090078006C
:10188800A101070030002400940107006000B8009F
:101898000885E80080017800010178008A00780056
:1018A8000900780098010700300024008B01070028
:1018B8004F0578004F04BE0000000600A00020007D
:1018C800E04088001E28EF00E3408000F2408000DE
:1018D800212021000000EB008B01070030002400CC
:1018E8007E013700881F78000E68EF00080021008D
:1018F80022042400880078000000EB008E01070015
:10190800004020000004440000802A00800F54009A
:10191800F7FF3A00A0952000FF0309000058EB00EC
:10192800000021009B0007005A6DEC00203C2800B5
:1019380085FD07004F04780000000600889FBE0060
:101948008A9FBE008C9FBE000005BE0082067800FC
:10195800F0FF2000800F5500440036001628AB0029
:1019680007003200B03C28009FFD07000A007800FD
:1019780015FE07000D007800F3FD070078FD07004D
:101988000006EB00350037000060FE000040EB0069
:10199800D0FE07001B80FB0001F02F0008816000CB
:1019A800020070001B4190004811DD00F00FB200EA
:1019B800000471002B4090000080FB0089806000CB
:1019C80001007000BB409000C808DD00F00FB200B5
:1019D800808470006406460000202100800F5500B6
:1019E8000C003A002008E20005003200503D2800B3
:1019F80055FD070088408000994080000C003700A2
:101A0800C03D280050FD07008840880099408800A4
:101A18000700370020202100800F550004003A00FD
:101A2800E8408800F9408800F8FF2F00F90F2000EF
:101A380088017800090178008A0078000000EB002E
:101A4800310107000C04E00002003A0010002400F5
:101A5800220107000A85E800E48545008D0F56003D
:101A6800C9FF39005A6DEF000C28EF004F06BE0081
:101A78004F05BE004F04BE0000000600889FBE0050
:101A88008A9FBE008C1F78008004780001047800CB
:101A98000206D1008045EB000900370089004500A7
:101AA8000000EB001C0107000A0145000034790022
:101AB8000A05E8000A05450001347D008BC5E800E9
:101AC8000B85FB008C0F5500F4FF39004F0678009A
:101AD8004F05BE004F04BE0000000600881F7800B6
:101AE800C24A80001000200031062000810F5100FA
:101AF80020003600A19520000004780010C0B30033
:101B0800D14F10000D003200303E280036FD07008E
:101B1800803E280034FD0700080078008AFD070091
:101B2800D03E280030FD0700C04A800086FD07002F
:101B38000BFD0700100020000E0037000804E80025
:101B4800820F5400EDFF3600006B8000116B80009F
:101B5800E26A8000F36A8000000069008180690001
:101B68000080700000F0A7000000EA000000EA0012
:101B78004F00DE004F04780000000600A0DC2000C3
:101B88008A0009000018EB00602DEF00622DEF00BD
:101B980000000600F1FF2000810F5000040036000D
:101BA800F0768800F5FF07005C2DEF005E2DEF0052
:101BB800000006004600DD000000D10001FE200004
:101BC8000100400000000600800078000000EB00E3
:101BD800F2FF2000828F50000300360000022F0021
:101BE800008040004500DE0000000600000178008B
:101BF8000000EB0080007800B281FB000300400089
:101C08008100E80003042000838F5000FAFF3A00A7
:101C180000000600E34F510021003E00E0768800F6
:101C28000042EB000204E000010032004612DD0031
:101C38005809E3001A0039008282FB00A3DC200067
:101C48008582420080B17A000482FB007002420063
:101C5800848241003F000900B15A78000104B100B4
:101C680013C0B300A195200083707800E34F5100A2
:101C780002003200DA6EEC0000000600506E8000B0
:101C8800CCFF070002102000A1DD20002BFF070079
:101C9800A0DC2000030009000018EB00DA6EEF005A
:101CA80000000600889FBE008A9FBE0000047800DE
:101CB80001057800E304640001003A0049002000AF
:101CC8008904E900E10F540002003A0000002100F5
:101CD800B0FF070063826C0004F0A7000402EA006A
:101CE8000402E9004F22DE00890178000041EB0080
:101CF80088007800D0C0B30011FB0700A095200031
:101D080060407C000004E00018003A000A007800F7
:101D1800B6FF0700800578006158B800E26A8000C5
:101D2800F36A80000201400083814800E26A88006B
:101D3800F36A88001608AB000C00320080412800C6
:101D4800A9FC070008007800FFFC0700D041280024
:101D5800A5FC07000B0078001BFD0700E06A800067
:101D6800F16A800027FD07007DFC07000941780023
:101D78008A00780008007800A6FF07004F05BE001B
:101D88004F04BE00000006000868EC000608EC00DE
:101D980030408800C2032000110009000280D800EA
:101DA800004088002548E200010032008EFE07004E
:101DB80093FE070020FC07001608AB000400320061
:101DC80030408000E0FC07004042280086FC070005
:101DD800000006000428EC000060FE0022FE070058
:101DE80020408000823E2000110009000280D800B7
:101DF8000100E00002003A000428EF00E2FF0700BB
:101E0800000006001021EF001221EF000A21EF0068
:101E18000621EF000E21EF000C21EF000E21EF004C
:101E280000EE2200600888008500A9001061A80063
:101E380011E1A800000006006880A900CE02A900F0
:101E4800C802A9002C43A8000000060068A0A90049
:101E5800C822A8002C63A80000000600CC22A80015
:101E6800C822A90000000600CC22A900C822A800A8
:101E7800000006000004E00001003200F7FF370010
:101E8800F9FF3700CC22AB0001003A00F3FF37001E
:101E9800F5FF3700CC02A800C802A9000000060020
:101EA800CC02A900C802A80000000600E7FF07004E
:101EB8002C43A800E0FF0700F9FF37000004E0000A
:101EC80001003200F3FF3700F5FF3700CC02AB000A
:101ED80001003A00EFFF3700F1FF3700003B8800B0
:101EE80050052000303B8800A00A2000303B8800C5
:101EF80061E7A80000000000000000006007E200A1
:101F0800FEFF35000000060032E0B7008308BB0082
:101F18008288BB00000006000101780032E0B700AB
:101F28009201BA00030078009280BA00000006000F
:101F380000400100000006002303200093417800C0
:101F480032E0B700023B88008108BB005005200042
:101F5800303B8800A00A2000303B880061E7A800D9
:101F680000000000000000006007E200FEFF3500EE
:101F78002003200003487800000006000008000045
:101F8800E006000000000000E00E0000060200006D
:101F980000000000E6100000020000000000000041
:0C1FA800000000000040DA000000FE0015
:020000040001F9
:0857F800AA7B0000793F0000CC
:00000001FF
